{
  "_format": "hh-sol-artifact-1",
  "contractName": "Valentines",
  "sourceName": "contracts/Valentines.sol",
  "abi": [
    {
      "inputs": [],
      "stateMutability": "nonpayable",
      "type": "constructor"
    },
    {
      "anonymous": false,
      "inputs": [
        {
          "indexed": true,
          "internalType": "address",
          "name": "owner",
          "type": "address"
        },
        {
          "indexed": true,
          "internalType": "address",
          "name": "approved",
          "type": "address"
        },
        {
          "indexed": true,
          "internalType": "uint256",
          "name": "tokenId",
          "type": "uint256"
        }
      ],
      "name": "Approval",
      "type": "event"
    },
    {
      "anonymous": false,
      "inputs": [
        {
          "indexed": true,
          "internalType": "address",
          "name": "owner",
          "type": "address"
        },
        {
          "indexed": true,
          "internalType": "address",
          "name": "operator",
          "type": "address"
        },
        {
          "indexed": false,
          "internalType": "bool",
          "name": "approved",
          "type": "bool"
        }
      ],
      "name": "ApprovalForAll",
      "type": "event"
    },
    {
      "anonymous": false,
      "inputs": [
        {
          "indexed": true,
          "internalType": "address",
          "name": "previousOwner",
          "type": "address"
        },
        {
          "indexed": true,
          "internalType": "address",
          "name": "newOwner",
          "type": "address"
        }
      ],
      "name": "OwnershipTransferred",
      "type": "event"
    },
    {
      "anonymous": false,
      "inputs": [
        {
          "indexed": true,
          "internalType": "address",
          "name": "from",
          "type": "address"
        },
        {
          "indexed": true,
          "internalType": "address",
          "name": "to",
          "type": "address"
        },
        {
          "indexed": true,
          "internalType": "uint256",
          "name": "tokenId",
          "type": "uint256"
        }
      ],
      "name": "Transfer",
      "type": "event"
    },
    {
      "inputs": [
        {
          "internalType": "address",
          "name": "to",
          "type": "address"
        },
        {
          "internalType": "uint256",
          "name": "tokenId",
          "type": "uint256"
        }
      ],
      "name": "approve",
      "outputs": [],
      "stateMutability": "nonpayable",
      "type": "function"
    },
    {
      "inputs": [
        {
          "internalType": "address",
          "name": "owner",
          "type": "address"
        }
      ],
      "name": "balanceOf",
      "outputs": [
        {
          "internalType": "uint256",
          "name": "",
          "type": "uint256"
        }
      ],
      "stateMutability": "view",
      "type": "function"
    },
    {
      "inputs": [
        {
          "internalType": "uint256",
          "name": "tokenId",
          "type": "uint256"
        }
      ],
      "name": "getApproved",
      "outputs": [
        {
          "internalType": "address",
          "name": "",
          "type": "address"
        }
      ],
      "stateMutability": "view",
      "type": "function"
    },
    {
      "inputs": [
        {
          "internalType": "address",
          "name": "owner",
          "type": "address"
        },
        {
          "internalType": "address",
          "name": "operator",
          "type": "address"
        }
      ],
      "name": "isApprovedForAll",
      "outputs": [
        {
          "internalType": "bool",
          "name": "",
          "type": "bool"
        }
      ],
      "stateMutability": "view",
      "type": "function"
    },
    {
      "inputs": [
        {
          "internalType": "string[]",
          "name": "lines",
          "type": "string[]"
        }
      ],
      "name": "mint",
      "outputs": [],
      "stateMutability": "nonpayable",
      "type": "function"
    },
    {
      "inputs": [],
      "name": "name",
      "outputs": [
        {
          "internalType": "string",
          "name": "",
          "type": "string"
        }
      ],
      "stateMutability": "view",
      "type": "function"
    },
    {
      "inputs": [],
      "name": "owner",
      "outputs": [
        {
          "internalType": "address",
          "name": "",
          "type": "address"
        }
      ],
      "stateMutability": "view",
      "type": "function"
    },
    {
      "inputs": [
        {
          "internalType": "uint256",
          "name": "tokenId",
          "type": "uint256"
        }
      ],
      "name": "ownerOf",
      "outputs": [
        {
          "internalType": "address",
          "name": "",
          "type": "address"
        }
      ],
      "stateMutability": "view",
      "type": "function"
    },
    {
      "inputs": [],
      "name": "renounceOwnership",
      "outputs": [],
      "stateMutability": "nonpayable",
      "type": "function"
    },
    {
      "inputs": [
        {
          "internalType": "address",
          "name": "from",
          "type": "address"
        },
        {
          "internalType": "address",
          "name": "to",
          "type": "address"
        },
        {
          "internalType": "uint256",
          "name": "tokenId",
          "type": "uint256"
        }
      ],
      "name": "safeTransferFrom",
      "outputs": [],
      "stateMutability": "nonpayable",
      "type": "function"
    },
    {
      "inputs": [
        {
          "internalType": "address",
          "name": "from",
          "type": "address"
        },
        {
          "internalType": "address",
          "name": "to",
          "type": "address"
        },
        {
          "internalType": "uint256",
          "name": "tokenId",
          "type": "uint256"
        },
        {
          "internalType": "bytes",
          "name": "_data",
          "type": "bytes"
        }
      ],
      "name": "safeTransferFrom",
      "outputs": [],
      "stateMutability": "nonpayable",
      "type": "function"
    },
    {
      "inputs": [
        {
          "internalType": "address",
          "name": "operator",
          "type": "address"
        },
        {
          "internalType": "bool",
          "name": "approved",
          "type": "bool"
        }
      ],
      "name": "setApprovalForAll",
      "outputs": [],
      "stateMutability": "nonpayable",
      "type": "function"
    },
    {
      "inputs": [
        {
          "internalType": "bytes4",
          "name": "interfaceId",
          "type": "bytes4"
        }
      ],
      "name": "supportsInterface",
      "outputs": [
        {
          "internalType": "bool",
          "name": "",
          "type": "bool"
        }
      ],
      "stateMutability": "view",
      "type": "function"
    },
    {
      "inputs": [],
      "name": "symbol",
      "outputs": [
        {
          "internalType": "string",
          "name": "",
          "type": "string"
        }
      ],
      "stateMutability": "view",
      "type": "function"
    },
    {
      "inputs": [
        {
          "internalType": "uint256",
          "name": "index",
          "type": "uint256"
        }
      ],
      "name": "tokenByIndex",
      "outputs": [
        {
          "internalType": "uint256",
          "name": "",
          "type": "uint256"
        }
      ],
      "stateMutability": "view",
      "type": "function"
    },
    {
      "inputs": [
        {
          "internalType": "address",
          "name": "owner",
          "type": "address"
        },
        {
          "internalType": "uint256",
          "name": "index",
          "type": "uint256"
        }
      ],
      "name": "tokenOfOwnerByIndex",
      "outputs": [
        {
          "internalType": "uint256",
          "name": "",
          "type": "uint256"
        }
      ],
      "stateMutability": "view",
      "type": "function"
    },
    {
      "inputs": [
        {
          "internalType": "uint256",
          "name": "tokenId",
          "type": "uint256"
        }
      ],
      "name": "tokenURI",
      "outputs": [
        {
          "internalType": "string",
          "name": "",
          "type": "string"
        }
      ],
      "stateMutability": "view",
      "type": "function"
    },
    {
      "inputs": [],
      "name": "totalSupply",
      "outputs": [
        {
          "internalType": "uint256",
          "name": "",
          "type": "uint256"
        }
      ],
      "stateMutability": "view",
      "type": "function"
    },
    {
      "inputs": [
        {
          "internalType": "address",
          "name": "from",
          "type": "address"
        },
        {
          "internalType": "address",
          "name": "to",
          "type": "address"
        },
        {
          "internalType": "uint256",
          "name": "tokenId",
          "type": "uint256"
        }
      ],
      "name": "transferFrom",
      "outputs": [],
      "stateMutability": "nonpayable",
      "type": "function"
    },
    {
      "inputs": [
        {
          "internalType": "address",
          "name": "newOwner",
          "type": "address"
        }
      ],
      "name": "transferOwnership",
      "outputs": [],
      "stateMutability": "nonpayable",
      "type": "function"
    }
  ],
  "bytecode": "0x60806040523480156200001157600080fd5b506040518060400160405280601381526020017f56616c656e74696e65732044617920506f656d000000000000000000000000008152506040518060400160405280600481526020017f4c4f564500000000000000000000000000000000000000000000000000000000815250816000908051906020019062000096929190620001ae565b508060019080519060200190620000af929190620001ae565b5050506001600a81905550620000da620000ce620000e060201b60201c565b620000e860201b60201c565b620002c3565b600033905090565b6000600b60009054906101000a900473ffffffffffffffffffffffffffffffffffffffff16905081600b60006101000a81548173ffffffffffffffffffffffffffffffffffffffff021916908373ffffffffffffffffffffffffffffffffffffffff1602179055508173ffffffffffffffffffffffffffffffffffffffff168173ffffffffffffffffffffffffffffffffffffffff167f8be0079c531659141344cd1fd0a4f28419497f9722a3daafe3b4186f6b6457e060405160405180910390a35050565b828054620001bc906200025e565b90600052602060002090601f016020900481019282620001e057600085556200022c565b82601f10620001fb57805160ff19168380011785556200022c565b828001600101855582156200022c579182015b828111156200022b5782518255916020019190600101906200020e565b5b5090506200023b91906200023f565b5090565b5b808211156200025a57600081600090555060010162000240565b5090565b600060028204905060018216806200027757607f821691505b602082108114156200028e576200028d62000294565b5b50919050565b7f4e487b7100000000000000000000000000000000000000000000000000000000600052602260045260246000fd5b61564180620002d36000396000f3fe608060405234801561001057600080fd5b506004361061012c5760003560e01c80636352211e116100ad578063a22cb46511610071578063a22cb46514610343578063b88d4fde1461035f578063c87b56dd1461037b578063e985e9c5146103ab578063f2fde38b146103db5761012c565b80636352211e1461029d57806370a08231146102cd578063715018a6146102fd5780638da5cb5b1461030757806395d89b41146103255761012c565b806323b872dd116100f457806323b872dd146101e95780632f745c591461020557806342842e0e146102355780634f6ccce7146102515780635768f271146102815761012c565b806301ffc9a71461013157806306fdde0314610161578063081812fc1461017f578063095ea7b3146101af57806318160ddd146101cb575b600080fd5b61014b60048036038101906101469190613f8d565b6103f7565b6040516101589190614591565b60405180910390f35b610169610471565b60405161017691906145ac565b60405180910390f35b61019960048036038101906101949190613fdf565b610503565b6040516101a6919061452a565b60405180910390f35b6101c960048036038101906101c49190613f10565b610588565b005b6101d36106a0565b6040516101e0919061484e565b60405180910390f35b61020360048036038101906101fe9190613e0a565b6106ad565b005b61021f600480360381019061021a9190613f10565b61070d565b60405161022c919061484e565b60405180910390f35b61024f600480360381019061024a9190613e0a565b6107b2565b005b61026b60048036038101906102669190613fdf565b6107d2565b604051610278919061484e565b60405180910390f35b61029b60048036038101906102969190613f4c565b610869565b005b6102b760048036038101906102b29190613fdf565b610acb565b6040516102c4919061452a565b60405180910390f35b6102e760048036038101906102e29190613da5565b610b7d565b6040516102f4919061484e565b60405180910390f35b610305610c35565b005b61030f610cbd565b60405161031c919061452a565b60405180910390f35b61032d610ce7565b60405161033a91906145ac565b60405180910390f35b61035d60048036038101906103589190613ed4565b610d79565b005b61037960048036038101906103749190613e59565b610d8f565b005b61039560048036038101906103909190613fdf565b610df1565b6040516103a291906145ac565b60405180910390f35b6103c560048036038101906103c09190613dce565b61200b565b6040516103d29190614591565b60405180910390f35b6103f560048036038101906103f09190613da5565b61209f565b005b60007f780e9d63000000000000000000000000000000000000000000000000000000007bffffffffffffffffffffffffffffffffffffffffffffffffffffffff1916827bffffffffffffffffffffffffffffffffffffffffffffffffffffffff1916148061046a575061046982612197565b5b9050919050565b60606000805461048090614b2a565b80601f01602080910402602001604051908101604052809291908181526020018280546104ac90614b2a565b80156104f95780601f106104ce576101008083540402835291602001916104f9565b820191906000526020600020905b8154815290600101906020018083116104dc57829003601f168201915b5050505050905090565b600061050e82612279565b61054d576040517f08c379a00000000000000000000000000000000000000000000000000000000081526004016105449061476e565b60405180910390fd5b6004600083815260200190815260200160002060009054906101000a900473ffffffffffffffffffffffffffffffffffffffff169050919050565b600061059382610acb565b90508073ffffffffffffffffffffffffffffffffffffffff168373ffffffffffffffffffffffffffffffffffffffff161415610604576040517f08c379a00000000000000000000000000000000000000000000000000000000081526004016105fb906147ce565b60405180910390fd5b8073ffffffffffffffffffffffffffffffffffffffff166106236122e5565b73ffffffffffffffffffffffffffffffffffffffff16148061065257506106518161064c6122e5565b61200b565b5b610691576040517f08c379a0000000000000000000000000000000000000000000000000000000008152600401610688906146ce565b60405180910390fd5b61069b83836122ed565b505050565b6000600880549050905090565b6106be6106b86122e5565b826123a6565b6106fd576040517f08c379a00000000000000000000000000000000000000000000000000000000081526004016106f4906147ee565b60405180910390fd5b610708838383612484565b505050565b600061071883610b7d565b8210610759576040517f08c379a0000000000000000000000000000000000000000000000000000000008152600401610750906145ce565b60405180910390fd5b600660008473ffffffffffffffffffffffffffffffffffffffff1673ffffffffffffffffffffffffffffffffffffffff168152602001908152602001600020600083815260200190815260200160002054905092915050565b6107cd83838360405180602001604052806000815250610d8f565b505050565b60006107dc6106a0565b821061081d576040517f08c379a00000000000000000000000000000000000000000000000000000000081526004016108149061480e565b60405180910390fd5b60088281548110610857577f4e487b7100000000000000000000000000000000000000000000000000000000600052603260045260246000fd5b90600052602060002001549050919050565b6002600a5414156108af576040517f08c379a00000000000000000000000000000000000000000000000000000000081526004016108a69061482e565b60405180910390fd5b6002600a8190555060088151146108fb576040517f08c379a00000000000000000000000000000000000000000000000000000000081526004016108f2906147ae565b60405180910390fd5b6000600867ffffffffffffffff81111561093e577f4e487b7100000000000000000000000000000000000000000000000000000000600052604160045260246000fd5b60405190808252806020026020018201604052801561097157816020015b606081526020019060019003908161095c5790505b50905060005b6008811015610a695760008382815181106109bb577f4e487b7100000000000000000000000000000000000000000000000000000000600052603260045260246000fd5b6020026020010151905060396109d0826126eb565b10610a10576040517f08c379a0000000000000000000000000000000000000000000000000000000008152600401610a079061472e565b60405180910390fd5b80838381518110610a4a577f4e487b7100000000000000000000000000000000000000000000000000000000600052603260045260246000fd5b6020026020010181905250508080610a6190614b8d565b915050610977565b5080600d6000610a79600c612a40565b81526020019081526020016000209080519060200190610a9a929190613a2d565b50610ab5610aa66122e5565b610ab0600c612a40565b612a4e565b610abf600c612a6c565b506001600a8190555050565b6000806002600084815260200190815260200160002060009054906101000a900473ffffffffffffffffffffffffffffffffffffffff169050600073ffffffffffffffffffffffffffffffffffffffff168173ffffffffffffffffffffffffffffffffffffffff161415610b74576040517f08c379a0000000000000000000000000000000000000000000000000000000008152600401610b6b9061470e565b60405180910390fd5b80915050919050565b60008073ffffffffffffffffffffffffffffffffffffffff168273ffffffffffffffffffffffffffffffffffffffff161415610bee576040517f08c379a0000000000000000000000000000000000000000000000000000000008152600401610be5906146ee565b60405180910390fd5b600360008373ffffffffffffffffffffffffffffffffffffffff1673ffffffffffffffffffffffffffffffffffffffff168152602001908152602001600020549050919050565b610c3d6122e5565b73ffffffffffffffffffffffffffffffffffffffff16610c5b610cbd565b73ffffffffffffffffffffffffffffffffffffffff1614610cb1576040517f08c379a0000000000000000000000000000000000000000000000000000000008152600401610ca89061478e565b60405180910390fd5b610cbb6000612a82565b565b6000600b60009054906101000a900473ffffffffffffffffffffffffffffffffffffffff16905090565b606060018054610cf690614b2a565b80601f0160208091040260200160405190810160405280929190818152602001828054610d2290614b2a565b8015610d6f5780601f10610d4457610100808354040283529160200191610d6f565b820191906000526020600020905b815481529060010190602001808311610d5257829003601f168201915b5050505050905090565b610d8b610d846122e5565b8383612b48565b5050565b610da0610d9a6122e5565b836123a6565b610ddf576040517f08c379a0000000000000000000000000000000000000000000000000000000008152600401610dd6906147ee565b60405180910390fd5b610deb84848484612cb5565b50505050565b6060610dfb613a8d565b6040518061014001604052806101088152602001615392610108913981600060128110610e51577f4e487b7100000000000000000000000000000000000000000000000000000000600052603260045260246000fd5b6020020181905250600d6000848152602001908152602001600020600081548110610ea5577f4e487b7100000000000000000000000000000000000000000000000000000000600052603260045260246000fd5b906000526020600020018054610eba90614b2a565b80601f0160208091040260200160405190810160405280929190818152602001828054610ee690614b2a565b8015610f335780601f10610f0857610100808354040283529160200191610f33565b820191906000526020600020905b815481529060010190602001808311610f1657829003601f168201915b505050505081600160128110610f72577f4e487b7100000000000000000000000000000000000000000000000000000000600052603260045260246000fd5b602002018190525060405180606001604052806028815260200161557e6028913981600260128110610fcd577f4e487b7100000000000000000000000000000000000000000000000000000000600052603260045260246000fd5b6020020181905250600d6000848152602001908152602001600020600181548110611021577f4e487b7100000000000000000000000000000000000000000000000000000000600052603260045260246000fd5b90600052602060002001805461103690614b2a565b80601f016020809104026020016040519081016040528092919081815260200182805461106290614b2a565b80156110af5780601f10611084576101008083540402835291602001916110af565b820191906000526020600020905b81548152906001019060200180831161109257829003601f168201915b5050505050816003601281106110ee577f4e487b7100000000000000000000000000000000000000000000000000000000600052603260045260246000fd5b60200201819052506040518060600160405280602981526020016154c36029913981600460128110611149577f4e487b7100000000000000000000000000000000000000000000000000000000600052603260045260246000fd5b6020020181905250600d600084815260200190815260200160002060028154811061119d577f4e487b7100000000000000000000000000000000000000000000000000000000600052603260045260246000fd5b9060005260206000200180546111b290614b2a565b80601f01602080910402602001604051908101604052809291908181526020018280546111de90614b2a565b801561122b5780601f106112005761010080835404028352916020019161122b565b820191906000526020600020905b81548152906001019060200180831161120e57829003601f168201915b50505050508160056012811061126a577f4e487b7100000000000000000000000000000000000000000000000000000000600052603260045260246000fd5b602002018190525060405180606001604052806029815260200161536960299139816006601281106112c5577f4e487b7100000000000000000000000000000000000000000000000000000000600052603260045260246000fd5b6020020181905250600d6000848152602001908152602001600020600381548110611319577f4e487b7100000000000000000000000000000000000000000000000000000000600052603260045260246000fd5b90600052602060002001805461132e90614b2a565b80601f016020809104026020016040519081016040528092919081815260200182805461135a90614b2a565b80156113a75780601f1061137c576101008083540402835291602001916113a7565b820191906000526020600020905b81548152906001019060200180831161138a57829003601f168201915b5050505050816007601281106113e6577f4e487b7100000000000000000000000000000000000000000000000000000000600052603260045260246000fd5b60200201819052506040518060600160405280602981526020016154ec6029913981600860128110611441577f4e487b7100000000000000000000000000000000000000000000000000000000600052603260045260246000fd5b6020020181905250600d6000848152602001908152602001600020600481548110611495577f4e487b7100000000000000000000000000000000000000000000000000000000600052603260045260246000fd5b9060005260206000200180546114aa90614b2a565b80601f01602080910402602001604051908101604052809291908181526020018280546114d690614b2a565b80156115235780601f106114f857610100808354040283529160200191611523565b820191906000526020600020905b81548152906001019060200180831161150657829003601f168201915b505050505081600960128110611562577f4e487b7100000000000000000000000000000000000000000000000000000000600052603260045260246000fd5b60200201819052506040518060600160405280602981526020016155a66029913981600a601281106115bd577f4e487b7100000000000000000000000000000000000000000000000000000000600052603260045260246000fd5b6020020181905250600d6000848152602001908152602001600020600581548110611611577f4e487b7100000000000000000000000000000000000000000000000000000000600052603260045260246000fd5b90600052602060002001805461162690614b2a565b80601f016020809104026020016040519081016040528092919081815260200182805461165290614b2a565b801561169f5780601f106116745761010080835404028352916020019161169f565b820191906000526020600020905b81548152906001019060200180831161168257829003601f168201915b505050505081600b601281106116de577f4e487b7100000000000000000000000000000000000000000000000000000000600052603260045260246000fd5b60200201819052506040518060600160405280602981526020016155156029913981600c60128110611739577f4e487b7100000000000000000000000000000000000000000000000000000000600052603260045260246000fd5b6020020181905250600d600084815260200190815260200160002060068154811061178d577f4e487b7100000000000000000000000000000000000000000000000000000000600052603260045260246000fd5b9060005260206000200180546117a290614b2a565b80601f01602080910402602001604051908101604052809291908181526020018280546117ce90614b2a565b801561181b5780601f106117f05761010080835404028352916020019161181b565b820191906000526020600020905b8154815290600101906020018083116117fe57829003601f168201915b505050505081600d6012811061185a577f4e487b7100000000000000000000000000000000000000000000000000000000600052603260045260246000fd5b602002018190525060405180606001604052806029815260200161549a6029913981600e601281106118b5577f4e487b7100000000000000000000000000000000000000000000000000000000600052603260045260246000fd5b6020020181905250600d6000848152602001908152602001600020600781548110611909577f4e487b7100000000000000000000000000000000000000000000000000000000600052603260045260246000fd5b90600052602060002001805461191e90614b2a565b80601f016020809104026020016040519081016040528092919081815260200182805461194a90614b2a565b80156119975780601f1061196c57610100808354040283529160200191611997565b820191906000526020600020905b81548152906001019060200180831161197a57829003601f168201915b505050505081600f601281106119d6577f4e487b7100000000000000000000000000000000000000000000000000000000600052603260045260246000fd5b60200201819052506040518060600160405280603d81526020016155cf603d913981601060128110611a31577f4e487b7100000000000000000000000000000000000000000000000000000000600052603260045260246000fd5b60200201819052506040518060400160405280600d81526020017f3c2f746578743e3c2f7376673e0000000000000000000000000000000000000081525081601160128110611aa9577f4e487b7100000000000000000000000000000000000000000000000000000000600052603260045260246000fd5b6020020181905250600081600060128110611aed577f4e487b7100000000000000000000000000000000000000000000000000000000600052603260045260246000fd5b602002015182600160128110611b2c577f4e487b7100000000000000000000000000000000000000000000000000000000600052603260045260246000fd5b602002015183600260128110611b6b577f4e487b7100000000000000000000000000000000000000000000000000000000600052603260045260246000fd5b602002015184600360128110611baa577f4e487b7100000000000000000000000000000000000000000000000000000000600052603260045260246000fd5b602002015185600460128110611be9577f4e487b7100000000000000000000000000000000000000000000000000000000600052603260045260246000fd5b602002015186600560128110611c28577f4e487b7100000000000000000000000000000000000000000000000000000000600052603260045260246000fd5b602002015187600660128110611c67577f4e487b7100000000000000000000000000000000000000000000000000000000600052603260045260246000fd5b602002015188600760128110611ca6577f4e487b7100000000000000000000000000000000000000000000000000000000600052603260045260246000fd5b602002015189600860128110611ce5577f4e487b7100000000000000000000000000000000000000000000000000000000600052603260045260246000fd5b6020020151604051602001611d0299989796959493929190614444565b60405160208183030381529060405290508082600960128110611d4e577f4e487b7100000000000000000000000000000000000000000000000000000000600052603260045260246000fd5b602002015183600a60128110611d8d577f4e487b7100000000000000000000000000000000000000000000000000000000600052603260045260246000fd5b602002015184600b60128110611dcc577f4e487b7100000000000000000000000000000000000000000000000000000000600052603260045260246000fd5b602002015185600c60128110611e0b577f4e487b7100000000000000000000000000000000000000000000000000000000600052603260045260246000fd5b602002015186600d60128110611e4a577f4e487b7100000000000000000000000000000000000000000000000000000000600052603260045260246000fd5b602002015187600e60128110611e89577f4e487b7100000000000000000000000000000000000000000000000000000000600052603260045260246000fd5b602002015188600f60128110611ec8577f4e487b7100000000000000000000000000000000000000000000000000000000600052603260045260246000fd5b602002015189601060128110611f07577f4e487b7100000000000000000000000000000000000000000000000000000000600052603260045260246000fd5b6020020151604051602001611f2499989796959493929190614444565b60405160208183030381529060405290508082601160128110611f70577f4e487b7100000000000000000000000000000000000000000000000000000000600052603260045260246000fd5b6020020151604051602001611f86929190614420565b6040516020818303038152906040529050611fa081612d11565b6000611fdc611fae86612daa565b611fb784612f57565b604051602001611fc89291906144e5565b604051602081830303815290604052612f57565b905080604051602001611fef91906144c3565b6040516020818303038152906040529150819350505050919050565b6000600560008473ffffffffffffffffffffffffffffffffffffffff1673ffffffffffffffffffffffffffffffffffffffff16815260200190815260200160002060008373ffffffffffffffffffffffffffffffffffffffff1673ffffffffffffffffffffffffffffffffffffffff16815260200190815260200160002060009054906101000a900460ff16905092915050565b6120a76122e5565b73ffffffffffffffffffffffffffffffffffffffff166120c5610cbd565b73ffffffffffffffffffffffffffffffffffffffff161461211b576040517f08c379a00000000000000000000000000000000000000000000000000000000081526004016121129061478e565b60405180910390fd5b600073ffffffffffffffffffffffffffffffffffffffff168173ffffffffffffffffffffffffffffffffffffffff16141561218b576040517f08c379a00000000000000000000000000000000000000000000000000000000081526004016121829061460e565b60405180910390fd5b61219481612a82565b50565b60007f80ac58cd000000000000000000000000000000000000000000000000000000007bffffffffffffffffffffffffffffffffffffffffffffffffffffffff1916827bffffffffffffffffffffffffffffffffffffffffffffffffffffffff1916148061226257507f5b5e139f000000000000000000000000000000000000000000000000000000007bffffffffffffffffffffffffffffffffffffffffffffffffffffffff1916827bffffffffffffffffffffffffffffffffffffffffffffffffffffffff1916145b80612272575061227182613115565b5b9050919050565b60008073ffffffffffffffffffffffffffffffffffffffff166002600084815260200190815260200160002060009054906101000a900473ffffffffffffffffffffffffffffffffffffffff1673ffffffffffffffffffffffffffffffffffffffff1614159050919050565b600033905090565b816004600083815260200190815260200160002060006101000a81548173ffffffffffffffffffffffffffffffffffffffff021916908373ffffffffffffffffffffffffffffffffffffffff160217905550808273ffffffffffffffffffffffffffffffffffffffff1661236083610acb565b73ffffffffffffffffffffffffffffffffffffffff167f8c5be1e5ebec7d5bd14f71427d1e84f3dd0314c0f7b2291e5b200ac8c7c3b92560405160405180910390a45050565b60006123b182612279565b6123f0576040517f08c379a00000000000000000000000000000000000000000000000000000000081526004016123e7906146ae565b60405180910390fd5b60006123fb83610acb565b90508073ffffffffffffffffffffffffffffffffffffffff168473ffffffffffffffffffffffffffffffffffffffff16148061246a57508373ffffffffffffffffffffffffffffffffffffffff1661245284610503565b73ffffffffffffffffffffffffffffffffffffffff16145b8061247b575061247a818561200b565b5b91505092915050565b8273ffffffffffffffffffffffffffffffffffffffff166124a482610acb565b73ffffffffffffffffffffffffffffffffffffffff16146124fa576040517f08c379a00000000000000000000000000000000000000000000000000000000081526004016124f19061462e565b60405180910390fd5b600073ffffffffffffffffffffffffffffffffffffffff168273ffffffffffffffffffffffffffffffffffffffff16141561256a576040517f08c379a00000000000000000000000000000000000000000000000000000000081526004016125619061466e565b60405180910390fd5b61257583838361317f565b6125806000826122ed565b6001600360008573ffffffffffffffffffffffffffffffffffffffff1673ffffffffffffffffffffffffffffffffffffffff16815260200190815260200160002060008282546125d09190614a40565b925050819055506001600360008473ffffffffffffffffffffffffffffffffffffffff1673ffffffffffffffffffffffffffffffffffffffff1681526020019081526020016000206000828254612627919061495f565b92505081905550816002600083815260200190815260200160002060006101000a81548173ffffffffffffffffffffffffffffffffffffffff021916908373ffffffffffffffffffffffffffffffffffffffff160217905550808273ffffffffffffffffffffffffffffffffffffffff168473ffffffffffffffffffffffffffffffffffffffff167fddf252ad1be2c89b69c2b068fc378daa952ba7f163c4a11628f55a4df523b3ef60405160405180910390a46126e6838383613293565b505050565b6000806000905060008390505b8051821015612a3957600060f81b6007828481518110612741577f4e487b7100000000000000000000000000000000000000000000000000000000600052603260045260246000fd5b602001015160f81c60f81b7effffffffffffffffffffffffffffffffffffffffffffffffffffffffffffff1916901c7effffffffffffffffffffffffffffffffffffffffffffffffffffffffffffff191614156127ac576001826127a5919061495f565b9150612a26565b600660f81b7effffffffffffffffffffffffffffffffffffffffffffffffffffffffffffff1916600582848151811061280e577f4e487b7100000000000000000000000000000000000000000000000000000000600052603260045260246000fd5b602001015160f81c60f81b7effffffffffffffffffffffffffffffffffffffffffffffffffffffffffffff1916901c7effffffffffffffffffffffffffffffffffffffffffffffffffffffffffffff1916141561287957600282612872919061495f565b9150612a25565b600e60f81b7effffffffffffffffffffffffffffffffffffffffffffffffffffffffffffff191660048284815181106128db577f4e487b7100000000000000000000000000000000000000000000000000000000600052603260045260246000fd5b602001015160f81c60f81b7effffffffffffffffffffffffffffffffffffffffffffffffffffffffffffff1916901c7effffffffffffffffffffffffffffffffffffffffffffffffffffffffffffff191614156129465760038261293f919061495f565b9150612a24565b601e60f81b7effffffffffffffffffffffffffffffffffffffffffffffffffffffffffffff191660038284815181106129a8577f4e487b7100000000000000000000000000000000000000000000000000000000600052603260045260246000fd5b602001015160f81c60f81b7effffffffffffffffffffffffffffffffffffffffffffffffffffffffffffff1916901c7effffffffffffffffffffffffffffffffffffffffffffffffffffffffffffff19161415612a1357600482612a0c919061495f565b9150612a23565b600182612a20919061495f565b91505b5b5b5b8280612a3190614b8d565b9350506126f8565b5050919050565b600081600001549050919050565b612a68828260405180602001604052806000815250613298565b5050565b6001816000016000828254019250508190555050565b6000600b60009054906101000a900473ffffffffffffffffffffffffffffffffffffffff16905081600b60006101000a81548173ffffffffffffffffffffffffffffffffffffffff021916908373ffffffffffffffffffffffffffffffffffffffff1602179055508173ffffffffffffffffffffffffffffffffffffffff168173ffffffffffffffffffffffffffffffffffffffff167f8be0079c531659141344cd1fd0a4f28419497f9722a3daafe3b4186f6b6457e060405160405180910390a35050565b8173ffffffffffffffffffffffffffffffffffffffff168373ffffffffffffffffffffffffffffffffffffffff161415612bb7576040517f08c379a0000000000000000000000000000000000000000000000000000000008152600401612bae9061468e565b60405180910390fd5b80600560008573ffffffffffffffffffffffffffffffffffffffff1673ffffffffffffffffffffffffffffffffffffffff16815260200190815260200160002060008473ffffffffffffffffffffffffffffffffffffffff1673ffffffffffffffffffffffffffffffffffffffff16815260200190815260200160002060006101000a81548160ff0219169083151502179055508173ffffffffffffffffffffffffffffffffffffffff168373ffffffffffffffffffffffffffffffffffffffff167f17307eab39ab6107e8899845ad3d59bd9653f200f220920489ca2b5937696c3183604051612ca89190614591565b60405180910390a3505050565b612cc0848484612484565b612ccc848484846132f3565b612d0b576040517f08c379a0000000000000000000000000000000000000000000000000000000008152600401612d02906145ee565b60405180910390fd5b50505050565b612da781604051602401612d2591906145ac565b6040516020818303038152906040527f41304fac000000000000000000000000000000000000000000000000000000007bffffffffffffffffffffffffffffffffffffffffffffffffffffffff19166020820180517bffffffffffffffffffffffffffffffffffffffffffffffffffffffff838183161783525050505061348a565b50565b60606000821415612df2576040518060400160405280600181526020017f30000000000000000000000000000000000000000000000000000000000000008152509050612f52565b600082905060005b60008214612e24578080612e0d90614b8d565b915050600a82612e1d91906149b5565b9150612dfa565b60008167ffffffffffffffff811115612e66577f4e487b7100000000000000000000000000000000000000000000000000000000600052604160045260246000fd5b6040519080825280601f01601f191660200182016040528015612e985781602001600182028036833780820191505090505b5090505b60008514612f4b57600182612eb19190614a40565b9150600a85612ec09190614bd6565b6030612ecc919061495f565b60f81b818381518110612f08577f4e487b7100000000000000000000000000000000000000000000000000000000600052603260045260246000fd5b60200101907effffffffffffffffffffffffffffffffffffffffffffffffffffffffffffff1916908160001a905350600a85612f4491906149b5565b9450612e9c565b8093505050505b919050565b60606000825190506000811415612f805760405180602001604052806000815250915050613110565b60006003600283612f91919061495f565b612f9b91906149b5565b6004612fa791906149e6565b90506000602082612fb8919061495f565b67ffffffffffffffff811115612ff7577f4e487b7100000000000000000000000000000000000000000000000000000000600052604160045260246000fd5b6040519080825280601f01601f1916602001820160405280156130295781602001600182028036833780820191505090505b509050600060405180606001604052806040815260200161553e604091399050600181016020830160005b868110156130cd5760038101905062ffffff818a015116603f8160121c168401518060081b905060ff603f83600c1c1686015116810190508060081b905060ff603f8360061c1686015116810190508060081b905060ff603f831686015116810190508060e01b90508084526004840193505050613054565b5060038606600181146130e757600281146130f757613102565b613d3d60f01b6002830352613102565b603d60f81b60018303525b508484525050819450505050505b919050565b60007f01ffc9a7000000000000000000000000000000000000000000000000000000007bffffffffffffffffffffffffffffffffffffffffffffffffffffffff1916827bffffffffffffffffffffffffffffffffffffffffffffffffffffffff1916149050919050565b61318a8383836134b3565b600073ffffffffffffffffffffffffffffffffffffffff168373ffffffffffffffffffffffffffffffffffffffff1614156131cd576131c8816134b8565b61320c565b8173ffffffffffffffffffffffffffffffffffffffff168373ffffffffffffffffffffffffffffffffffffffff161461320b5761320a8382613501565b5b5b600073ffffffffffffffffffffffffffffffffffffffff168273ffffffffffffffffffffffffffffffffffffffff16141561324f5761324a8161366e565b61328e565b8273ffffffffffffffffffffffffffffffffffffffff168273ffffffffffffffffffffffffffffffffffffffff161461328d5761328c82826137b1565b5b5b505050565b505050565b6132a28383613830565b6132af60008484846132f3565b6132ee576040517f08c379a00000000000000000000000000000000000000000000000000000000081526004016132e5906145ee565b60405180910390fd5b505050565b60006133148473ffffffffffffffffffffffffffffffffffffffff16613a0a565b1561347d578373ffffffffffffffffffffffffffffffffffffffff1663150b7a0261333d6122e5565b8786866040518563ffffffff1660e01b815260040161335f9493929190614545565b602060405180830381600087803b15801561337957600080fd5b505af19250505080156133aa57506040513d601f19601f820116820180604052508101906133a79190613fb6565b60015b61342d573d80600081146133da576040519150601f19603f3d011682016040523d82523d6000602084013e6133df565b606091505b50600081511415613425576040517f08c379a000000000000000000000000000000000000000000000000000000000815260040161341c906145ee565b60405180910390fd5b805181602001fd5b63150b7a0260e01b7bffffffffffffffffffffffffffffffffffffffffffffffffffffffff1916817bffffffffffffffffffffffffffffffffffffffffffffffffffffffff191614915050613482565b600190505b949350505050565b60008151905060006a636f6e736f6c652e6c6f679050602083016000808483855afa5050505050565b505050565b6008805490506009600083815260200190815260200160002081905550600881908060018154018082558091505060019003906000526020600020016000909190919091505550565b6000600161350e84610b7d565b6135189190614a40565b90506000600760008481526020019081526020016000205490508181146135fd576000600660008673ffffffffffffffffffffffffffffffffffffffff1673ffffffffffffffffffffffffffffffffffffffff168152602001908152602001600020600084815260200190815260200160002054905080600660008773ffffffffffffffffffffffffffffffffffffffff1673ffffffffffffffffffffffffffffffffffffffff168152602001908152602001600020600084815260200190815260200160002081905550816007600083815260200190815260200160002081905550505b6007600084815260200190815260200160002060009055600660008573ffffffffffffffffffffffffffffffffffffffff1673ffffffffffffffffffffffffffffffffffffffff16815260200190815260200160002060008381526020019081526020016000206000905550505050565b600060016008805490506136829190614a40565b90506000600960008481526020019081526020016000205490506000600883815481106136d8577f4e487b7100000000000000000000000000000000000000000000000000000000600052603260045260246000fd5b906000526020600020015490508060088381548110613720577f4e487b7100000000000000000000000000000000000000000000000000000000600052603260045260246000fd5b906000526020600020018190555081600960008381526020019081526020016000208190555060096000858152602001908152602001600020600090556008805480613795577f4e487b7100000000000000000000000000000000000000000000000000000000600052603160045260246000fd5b6001900381819060005260206000200160009055905550505050565b60006137bc83610b7d565b905081600660008573ffffffffffffffffffffffffffffffffffffffff1673ffffffffffffffffffffffffffffffffffffffff168152602001908152602001600020600083815260200190815260200160002081905550806007600084815260200190815260200160002081905550505050565b600073ffffffffffffffffffffffffffffffffffffffff168273ffffffffffffffffffffffffffffffffffffffff1614156138a0576040517f08c379a00000000000000000000000000000000000000000000000000000000081526004016138979061474e565b60405180910390fd5b6138a981612279565b156138e9576040517f08c379a00000000000000000000000000000000000000000000000000000000081526004016138e09061464e565b60405180910390fd5b6138f56000838361317f565b6001600360008473ffffffffffffffffffffffffffffffffffffffff1673ffffffffffffffffffffffffffffffffffffffff1681526020019081526020016000206000828254613945919061495f565b92505081905550816002600083815260200190815260200160002060006101000a81548173ffffffffffffffffffffffffffffffffffffffff021916908373ffffffffffffffffffffffffffffffffffffffff160217905550808273ffffffffffffffffffffffffffffffffffffffff16600073ffffffffffffffffffffffffffffffffffffffff167fddf252ad1be2c89b69c2b068fc378daa952ba7f163c4a11628f55a4df523b3ef60405160405180910390a4613a0660008383613293565b5050565b6000808273ffffffffffffffffffffffffffffffffffffffff163b119050919050565b828054828255906000526020600020908101928215613a7c579160200282015b82811115613a7b578251829080519060200190613a6b929190613ab5565b5091602001919060010190613a4d565b5b509050613a899190613b3b565b5090565b6040518061024001604052806012905b6060815260200190600190039081613a9d5790505090565b828054613ac190614b2a565b90600052602060002090601f016020900481019282613ae35760008555613b2a565b82601f10613afc57805160ff1916838001178555613b2a565b82800160010185558215613b2a579182015b82811115613b29578251825591602001919060010190613b0e565b5b509050613b379190613b5f565b5090565b5b80821115613b5b5760008181613b529190613b7c565b50600101613b3c565b5090565b5b80821115613b78576000816000905550600101613b60565b5090565b508054613b8890614b2a565b6000825580601f10613b9a5750613bb9565b601f016020900490600052602060002090810190613bb89190613b5f565b5b50565b6000613bcf613bca8461488e565b614869565b90508083825260208201905082856020860282011115613bee57600080fd5b60005b85811015613c3857813567ffffffffffffffff811115613c1057600080fd5b808601613c1d8982613d66565b85526020850194506020840193505050600181019050613bf1565b5050509392505050565b6000613c55613c50846148ba565b614869565b905082815260208101848484011115613c6d57600080fd5b613c78848285614ae8565b509392505050565b6000613c93613c8e846148eb565b614869565b905082815260208101848484011115613cab57600080fd5b613cb6848285614ae8565b509392505050565b600081359050613ccd8161530c565b92915050565b600082601f830112613ce457600080fd5b8135613cf4848260208601613bbc565b91505092915050565b600081359050613d0c81615323565b92915050565b600081359050613d218161533a565b92915050565b600081519050613d368161533a565b92915050565b600082601f830112613d4d57600080fd5b8135613d5d848260208601613c42565b91505092915050565b600082601f830112613d7757600080fd5b8135613d87848260208601613c80565b91505092915050565b600081359050613d9f81615351565b92915050565b600060208284031215613db757600080fd5b6000613dc584828501613cbe565b91505092915050565b60008060408385031215613de157600080fd5b6000613def85828601613cbe565b9250506020613e0085828601613cbe565b9150509250929050565b600080600060608486031215613e1f57600080fd5b6000613e2d86828701613cbe565b9350506020613e3e86828701613cbe565b9250506040613e4f86828701613d90565b9150509250925092565b60008060008060808587031215613e6f57600080fd5b6000613e7d87828801613cbe565b9450506020613e8e87828801613cbe565b9350506040613e9f87828801613d90565b925050606085013567ffffffffffffffff811115613ebc57600080fd5b613ec887828801613d3c565b91505092959194509250565b60008060408385031215613ee757600080fd5b6000613ef585828601613cbe565b9250506020613f0685828601613cfd565b9150509250929050565b60008060408385031215613f2357600080fd5b6000613f3185828601613cbe565b9250506020613f4285828601613d90565b9150509250929050565b600060208284031215613f5e57600080fd5b600082013567ffffffffffffffff811115613f7857600080fd5b613f8484828501613cd3565b91505092915050565b600060208284031215613f9f57600080fd5b6000613fad84828501613d12565b91505092915050565b600060208284031215613fc857600080fd5b6000613fd684828501613d27565b91505092915050565b600060208284031215613ff157600080fd5b6000613fff84828501613d90565b91505092915050565b61401181614a74565b82525050565b61402081614a86565b82525050565b60006140318261491c565b61403b8185614932565b935061404b818560208601614af7565b61405481614cc3565b840191505092915050565b600061406a82614927565b6140748185614943565b9350614084818560208601614af7565b61408d81614cc3565b840191505092915050565b60006140a382614927565b6140ad8185614954565b93506140bd818560208601614af7565b80840191505092915050565b60006140d6602b83614943565b91506140e182614cd4565b604082019050919050565b60006140f9603283614943565b915061410482614d23565b604082019050919050565b600061411c602683614943565b915061412782614d72565b604082019050919050565b600061413f602583614943565b915061414a82614dc1565b604082019050919050565b6000614162601c83614943565b915061416d82614e10565b602082019050919050565b6000614185602483614943565b915061419082614e39565b604082019050919050565b60006141a8601983614943565b91506141b382614e88565b602082019050919050565b60006141cb602c83614943565b91506141d682614eb1565b604082019050919050565b60006141ee603883614943565b91506141f982614f00565b604082019050919050565b6000614211602a83614943565b915061421c82614f4f565b604082019050919050565b6000614234602983614943565b915061423f82614f9e565b604082019050919050565b6000614257600283614954565b915061426282614fed565b600282019050919050565b600061427a602483614943565b915061428582615016565b604082019050919050565b600061429d602083614943565b91506142a882615065565b602082019050919050565b60006142c0602c83614943565b91506142cb8261508e565b604082019050919050565b60006142e3602083614943565b91506142ee826150dd565b602082019050919050565b6000614306601083614943565b915061431182615106565b602082019050919050565b6000614329602183614943565b91506143348261512f565b604082019050919050565b600061434c601d83614954565b91506143578261517e565b601d82019050919050565b600061436f603183614943565b915061437a826151a7565b604082019050919050565b6000614392602c83614943565b915061439d826151f6565b604082019050919050565b60006143b5601683614954565b91506143c082615245565b601682019050919050565b60006143d8605e83614954565b91506143e38261526e565b605e82019050919050565b60006143fb601f83614943565b9150614406826152e3565b602082019050919050565b61441a81614ade565b82525050565b600061442c8285614098565b91506144388284614098565b91508190509392505050565b6000614450828c614098565b915061445c828b614098565b9150614468828a614098565b91506144748289614098565b91506144808288614098565b915061448c8287614098565b91506144988286614098565b91506144a48285614098565b91506144b08284614098565b91508190509a9950505050505050505050565b60006144ce8261433f565b91506144da8284614098565b915081905092915050565b60006144f0826143a8565b91506144fc8285614098565b9150614507826143cb565b91506145138284614098565b915061451e8261424a565b91508190509392505050565b600060208201905061453f6000830184614008565b92915050565b600060808201905061455a6000830187614008565b6145676020830186614008565b6145746040830185614411565b81810360608301526145868184614026565b905095945050505050565b60006020820190506145a66000830184614017565b92915050565b600060208201905081810360008301526145c6818461405f565b905092915050565b600060208201905081810360008301526145e7816140c9565b9050919050565b60006020820190508181036000830152614607816140ec565b9050919050565b600060208201905081810360008301526146278161410f565b9050919050565b6000602082019050818103600083015261464781614132565b9050919050565b6000602082019050818103600083015261466781614155565b9050919050565b6000602082019050818103600083015261468781614178565b9050919050565b600060208201905081810360008301526146a78161419b565b9050919050565b600060208201905081810360008301526146c7816141be565b9050919050565b600060208201905081810360008301526146e7816141e1565b9050919050565b6000602082019050818103600083015261470781614204565b9050919050565b6000602082019050818103600083015261472781614227565b9050919050565b600060208201905081810360008301526147478161426d565b9050919050565b6000602082019050818103600083015261476781614290565b9050919050565b60006020820190508181036000830152614787816142b3565b9050919050565b600060208201905081810360008301526147a7816142d6565b9050919050565b600060208201905081810360008301526147c7816142f9565b9050919050565b600060208201905081810360008301526147e78161431c565b9050919050565b6000602082019050818103600083015261480781614362565b9050919050565b6000602082019050818103600083015261482781614385565b9050919050565b60006020820190508181036000830152614847816143ee565b9050919050565b60006020820190506148636000830184614411565b92915050565b6000614873614884565b905061487f8282614b5c565b919050565b6000604051905090565b600067ffffffffffffffff8211156148a9576148a8614c94565b5b602082029050602081019050919050565b600067ffffffffffffffff8211156148d5576148d4614c94565b5b6148de82614cc3565b9050602081019050919050565b600067ffffffffffffffff82111561490657614905614c94565b5b61490f82614cc3565b9050602081019050919050565b600081519050919050565b600081519050919050565b600082825260208201905092915050565b600082825260208201905092915050565b600081905092915050565b600061496a82614ade565b915061497583614ade565b9250827fffffffffffffffffffffffffffffffffffffffffffffffffffffffffffffffff038211156149aa576149a9614c07565b5b828201905092915050565b60006149c082614ade565b91506149cb83614ade565b9250826149db576149da614c36565b5b828204905092915050565b60006149f182614ade565b91506149fc83614ade565b9250817fffffffffffffffffffffffffffffffffffffffffffffffffffffffffffffffff0483118215151615614a3557614a34614c07565b5b828202905092915050565b6000614a4b82614ade565b9150614a5683614ade565b925082821015614a6957614a68614c07565b5b828203905092915050565b6000614a7f82614abe565b9050919050565b60008115159050919050565b60007fffffffff0000000000000000000000000000000000000000000000000000000082169050919050565b600073ffffffffffffffffffffffffffffffffffffffff82169050919050565b6000819050919050565b82818337600083830152505050565b60005b83811015614b15578082015181840152602081019050614afa565b83811115614b24576000848401525b50505050565b60006002820490506001821680614b4257607f821691505b60208210811415614b5657614b55614c65565b5b50919050565b614b6582614cc3565b810181811067ffffffffffffffff82111715614b8457614b83614c94565b5b80604052505050565b6000614b9882614ade565b91507fffffffffffffffffffffffffffffffffffffffffffffffffffffffffffffffff821415614bcb57614bca614c07565b5b600182019050919050565b6000614be182614ade565b9150614bec83614ade565b925082614bfc57614bfb614c36565b5b828206905092915050565b7f4e487b7100000000000000000000000000000000000000000000000000000000600052601160045260246000fd5b7f4e487b7100000000000000000000000000000000000000000000000000000000600052601260045260246000fd5b7f4e487b7100000000000000000000000000000000000000000000000000000000600052602260045260246000fd5b7f4e487b7100000000000000000000000000000000000000000000000000000000600052604160045260246000fd5b6000601f19601f8301169050919050565b7f455243373231456e756d657261626c653a206f776e657220696e646578206f7560008201527f74206f6620626f756e6473000000000000000000000000000000000000000000602082015250565b7f4552433732313a207472616e7366657220746f206e6f6e20455243373231526560008201527f63656976657220696d706c656d656e7465720000000000000000000000000000602082015250565b7f4f776e61626c653a206e6577206f776e657220697320746865207a65726f206160008201527f6464726573730000000000000000000000000000000000000000000000000000602082015250565b7f4552433732313a207472616e736665722066726f6d20696e636f72726563742060008201527f6f776e6572000000000000000000000000000000000000000000000000000000602082015250565b7f4552433732313a20746f6b656e20616c7265616479206d696e74656400000000600082015250565b7f4552433732313a207472616e7366657220746f20746865207a65726f2061646460008201527f7265737300000000000000000000000000000000000000000000000000000000602082015250565b7f4552433732313a20617070726f766520746f2063616c6c657200000000000000600082015250565b7f4552433732313a206f70657261746f7220717565727920666f72206e6f6e657860008201527f697374656e7420746f6b656e0000000000000000000000000000000000000000602082015250565b7f4552433732313a20617070726f76652063616c6c6572206973206e6f74206f7760008201527f6e6572206e6f7220617070726f76656420666f7220616c6c0000000000000000602082015250565b7f4552433732313a2062616c616e636520717565727920666f7220746865207a6560008201527f726f206164647265737300000000000000000000000000000000000000000000602082015250565b7f4552433732313a206f776e657220717565727920666f72206e6f6e657869737460008201527f656e7420746f6b656e0000000000000000000000000000000000000000000000602082015250565b7f227d000000000000000000000000000000000000000000000000000000000000600082015250565b7f4861732061206c696e65206c6f6e676572207468616e2035362063686172616360008201527f7465727300000000000000000000000000000000000000000000000000000000602082015250565b7f4552433732313a206d696e7420746f20746865207a65726f2061646472657373600082015250565b7f4552433732313a20617070726f76656420717565727920666f72206e6f6e657860008201527f697374656e7420746f6b656e0000000000000000000000000000000000000000602082015250565b7f4f776e61626c653a2063616c6c6572206973206e6f7420746865206f776e6572600082015250565b7f546f6b656e20494420696e76616c696400000000000000000000000000000000600082015250565b7f4552433732313a20617070726f76616c20746f2063757272656e74206f776e6560008201527f7200000000000000000000000000000000000000000000000000000000000000602082015250565b7f646174613a6170706c69636174696f6e2f6a736f6e3b6261736536342c000000600082015250565b7f4552433732313a207472616e736665722063616c6c6572206973206e6f74206f60008201527f776e6572206e6f7220617070726f766564000000000000000000000000000000602082015250565b7f455243373231456e756d657261626c653a20676c6f62616c20696e646578206f60008201527f7574206f6620626f756e64730000000000000000000000000000000000000000602082015250565b7f7b226e616d65223a202256616c656e74696e6573202300000000000000000000600082015250565b7f222c20226465736372697074696f6e223a202253656e6420796f75722076616c60008201527f656e74696e65206120637573746f6d20706f656d203a29222c2022696d61676560208201527f223a2022646174613a696d6167652f7376672b786d6c3b6261736536342c0000604082015250565b7f5265656e7472616e637947756172643a207265656e7472616e742063616c6c00600082015250565b61531581614a74565b811461532057600080fd5b50565b61532c81614a86565b811461533757600080fd5b50565b61534381614a92565b811461534e57600080fd5b50565b61535a81614ade565b811461536557600080fd5b5056fe3c2f746578743e3c7465787420783d2231362220793d223133302220636c6173733d2262617365223e3c73766720786d6c6e733d22687474703a2f2f7777772e77332e6f72672f323030302f73766722207072657365727665417370656374526174696f3d22784d696e594d696e206d656574222076696577426f783d223020302033353020333530223e3c7374796c653e2e62617365207b2066696c6c3a2077686974653b20666f6e742d66616d696c793a20417269616c2c2056657264616e613b20666f6e742d73697a653a20313670783b207d3c2f7374796c653e3c726563742077696474683d223130302522206865696768743d2231303025222066696c6c3d222346363837423322202f3e3c7465787420783d2231362220793d2234302220636c6173733d2262617365223e3c2f746578743e3c7465787420783d2231362220793d223235302220636c6173733d2262617365223e3c2f746578743e3c7465787420783d2231362220793d223130302220636c6173733d2262617365223e3c2f746578743e3c7465787420783d2231362220793d223136302220636c6173733d2262617365223e3c2f746578743e3c7465787420783d2231362220793d223232302220636c6173733d2262617365223e4142434445464748494a4b4c4d4e4f505152535455565758595a6162636465666768696a6b6c6d6e6f707172737475767778797a303132333435363738392b2f3c2f746578743e3c7465787420783d2231362220793d2237302220636c6173733d2262617365223e3c2f746578743e3c7465787420783d2231362220793d223139302220636c6173733d2262617365223e3c2f746578743e3c7465787420783d2231362220793d223332302220636c6173733d2262617365223e48617070792056616c656e74696e657320446179a264697066735822122030a9497dabcb5613b7669a78936f8d4b102b678493dab6fc3bd7c63cc5e21bb964736f6c63430008040033",
  "linkReferences": {},
  "deployedLinkReferences": {}
}