{
    "_format": "hh-sol-artifact-1",
    "contractName": "Valentines",
    "sourceName": "contracts/Valentines.sol",
    "abi": [
        {
            "inputs": [],
            "stateMutability": "nonpayable",
            "type": "constructor"
        },
        {
            "anonymous": false,
            "inputs": [
                {
                    "indexed": true,
                    "internalType": "address",
                    "name": "owner",
                    "type": "address"
                },
                {
                    "indexed": true,
                    "internalType": "address",
                    "name": "approved",
                    "type": "address"
                },
                {
                    "indexed": true,
                    "internalType": "uint256",
                    "name": "tokenId",
                    "type": "uint256"
                }
            ],
            "name": "Approval",
            "type": "event"
        },
        {
            "anonymous": false,
            "inputs": [
                {
                    "indexed": true,
                    "internalType": "address",
                    "name": "owner",
                    "type": "address"
                },
                {
                    "indexed": true,
                    "internalType": "address",
                    "name": "operator",
                    "type": "address"
                },
                {
                    "indexed": false,
                    "internalType": "bool",
                    "name": "approved",
                    "type": "bool"
                }
            ],
            "name": "ApprovalForAll",
            "type": "event"
        },
        {
            "anonymous": false,
            "inputs": [
                {
                    "indexed": true,
                    "internalType": "address",
                    "name": "previousOwner",
                    "type": "address"
                },
                {
                    "indexed": true,
                    "internalType": "address",
                    "name": "newOwner",
                    "type": "address"
                }
            ],
            "name": "OwnershipTransferred",
            "type": "event"
        },
        {
            "anonymous": false,
            "inputs": [
                {
                    "indexed": true,
                    "internalType": "address",
                    "name": "from",
                    "type": "address"
                },
                {
                    "indexed": true,
                    "internalType": "address",
                    "name": "to",
                    "type": "address"
                },
                {
                    "indexed": true,
                    "internalType": "uint256",
                    "name": "tokenId",
                    "type": "uint256"
                }
            ],
            "name": "Transfer",
            "type": "event"
        },
        {
            "inputs": [
                {
                    "internalType": "address",
                    "name": "to",
                    "type": "address"
                },
                {
                    "internalType": "uint256",
                    "name": "tokenId",
                    "type": "uint256"
                }
            ],
            "name": "approve",
            "outputs": [],
            "stateMutability": "nonpayable",
            "type": "function"
        },
        {
            "inputs": [
                {
                    "internalType": "address",
                    "name": "owner",
                    "type": "address"
                }
            ],
            "name": "balanceOf",
            "outputs": [
                {
                    "internalType": "uint256",
                    "name": "",
                    "type": "uint256"
                }
            ],
            "stateMutability": "view",
            "type": "function"
        },
        {
            "inputs": [
                {
                    "internalType": "uint256",
                    "name": "tokenId",
                    "type": "uint256"
                }
            ],
            "name": "getApproved",
            "outputs": [
                {
                    "internalType": "address",
                    "name": "",
                    "type": "address"
                }
            ],
            "stateMutability": "view",
            "type": "function"
        },
        {
            "inputs": [
                {
                    "internalType": "address",
                    "name": "owner",
                    "type": "address"
                },
                {
                    "internalType": "address",
                    "name": "operator",
                    "type": "address"
                }
            ],
            "name": "isApprovedForAll",
            "outputs": [
                {
                    "internalType": "bool",
                    "name": "",
                    "type": "bool"
                }
            ],
            "stateMutability": "view",
            "type": "function"
        },
        {
            "inputs": [
                {
                    "internalType": "string[]",
                    "name": "lines",
                    "type": "string[]"
                }
            ],
            "name": "mint",
            "outputs": [],
            "stateMutability": "nonpayable",
            "type": "function"
        },
        {
            "inputs": [],
            "name": "name",
            "outputs": [
                {
                    "internalType": "string",
                    "name": "",
                    "type": "string"
                }
            ],
            "stateMutability": "view",
            "type": "function"
        },
        {
            "inputs": [],
            "name": "owner",
            "outputs": [
                {
                    "internalType": "address",
                    "name": "",
                    "type": "address"
                }
            ],
            "stateMutability": "view",
            "type": "function"
        },
        {
            "inputs": [
                {
                    "internalType": "uint256",
                    "name": "tokenId",
                    "type": "uint256"
                }
            ],
            "name": "ownerOf",
            "outputs": [
                {
                    "internalType": "address",
                    "name": "",
                    "type": "address"
                }
            ],
            "stateMutability": "view",
            "type": "function"
        },
        {
            "inputs": [],
            "name": "renounceOwnership",
            "outputs": [],
            "stateMutability": "nonpayable",
            "type": "function"
        },
        {
            "inputs": [
                {
                    "internalType": "address",
                    "name": "from",
                    "type": "address"
                },
                {
                    "internalType": "address",
                    "name": "to",
                    "type": "address"
                },
                {
                    "internalType": "uint256",
                    "name": "tokenId",
                    "type": "uint256"
                }
            ],
            "name": "safeTransferFrom",
            "outputs": [],
            "stateMutability": "nonpayable",
            "type": "function"
        },
        {
            "inputs": [
                {
                    "internalType": "address",
                    "name": "from",
                    "type": "address"
                },
                {
                    "internalType": "address",
                    "name": "to",
                    "type": "address"
                },
                {
                    "internalType": "uint256",
                    "name": "tokenId",
                    "type": "uint256"
                },
                {
                    "internalType": "bytes",
                    "name": "_data",
                    "type": "bytes"
                }
            ],
            "name": "safeTransferFrom",
            "outputs": [],
            "stateMutability": "nonpayable",
            "type": "function"
        },
        {
            "inputs": [
                {
                    "internalType": "address",
                    "name": "operator",
                    "type": "address"
                },
                {
                    "internalType": "bool",
                    "name": "approved",
                    "type": "bool"
                }
            ],
            "name": "setApprovalForAll",
            "outputs": [],
            "stateMutability": "nonpayable",
            "type": "function"
        },
        {
            "inputs": [
                {
                    "internalType": "bytes4",
                    "name": "interfaceId",
                    "type": "bytes4"
                }
            ],
            "name": "supportsInterface",
            "outputs": [
                {
                    "internalType": "bool",
                    "name": "",
                    "type": "bool"
                }
            ],
            "stateMutability": "view",
            "type": "function"
        },
        {
            "inputs": [],
            "name": "symbol",
            "outputs": [
                {
                    "internalType": "string",
                    "name": "",
                    "type": "string"
                }
            ],
            "stateMutability": "view",
            "type": "function"
        },
        {
            "inputs": [
                {
                    "internalType": "uint256",
                    "name": "index",
                    "type": "uint256"
                }
            ],
            "name": "tokenByIndex",
            "outputs": [
                {
                    "internalType": "uint256",
                    "name": "",
                    "type": "uint256"
                }
            ],
            "stateMutability": "view",
            "type": "function"
        },
        {
            "inputs": [
                {
                    "internalType": "address",
                    "name": "owner",
                    "type": "address"
                },
                {
                    "internalType": "uint256",
                    "name": "index",
                    "type": "uint256"
                }
            ],
            "name": "tokenOfOwnerByIndex",
            "outputs": [
                {
                    "internalType": "uint256",
                    "name": "",
                    "type": "uint256"
                }
            ],
            "stateMutability": "view",
            "type": "function"
        },
        {
            "inputs": [
                {
                    "internalType": "uint256",
                    "name": "tokenId",
                    "type": "uint256"
                }
            ],
            "name": "tokenURI",
            "outputs": [
                {
                    "internalType": "string",
                    "name": "",
                    "type": "string"
                }
            ],
            "stateMutability": "view",
            "type": "function"
        },
        {
            "inputs": [],
            "name": "totalSupply",
            "outputs": [
                {
                    "internalType": "uint256",
                    "name": "",
                    "type": "uint256"
                }
            ],
            "stateMutability": "view",
            "type": "function"
        },
        {
            "inputs": [
                {
                    "internalType": "address",
                    "name": "from",
                    "type": "address"
                },
                {
                    "internalType": "address",
                    "name": "to",
                    "type": "address"
                },
                {
                    "internalType": "uint256",
                    "name": "tokenId",
                    "type": "uint256"
                }
            ],
            "name": "transferFrom",
            "outputs": [],
            "stateMutability": "nonpayable",
            "type": "function"
        },
        {
            "inputs": [
                {
                    "internalType": "address",
                    "name": "newOwner",
                    "type": "address"
                }
            ],
            "name": "transferOwnership",
            "outputs": [],
            "stateMutability": "nonpayable",
            "type": "function"
        }
    ],
    "bytecode": "0x60806040523480156200001157600080fd5b506040518060400160405280600a81526020017f56616c656e74696e6573000000000000000000000000000000000000000000008152506040518060400160405280600481526020017f4c4f564500000000000000000000000000000000000000000000000000000000815250816000908051906020019062000096929190620001ae565b508060019080519060200190620000af929190620001ae565b5050506001600a81905550620000da620000ce620000e060201b60201c565b620000e860201b60201c565b620002c3565b600033905090565b6000600b60009054906101000a900473ffffffffffffffffffffffffffffffffffffffff16905081600b60006101000a81548173ffffffffffffffffffffffffffffffffffffffff021916908373ffffffffffffffffffffffffffffffffffffffff1602179055508173ffffffffffffffffffffffffffffffffffffffff168173ffffffffffffffffffffffffffffffffffffffff167f8be0079c531659141344cd1fd0a4f28419497f9722a3daafe3b4186f6b6457e060405160405180910390a35050565b828054620001bc906200025e565b90600052602060002090601f016020900481019282620001e057600085556200022c565b82601f10620001fb57805160ff19168380011785556200022c565b828001600101855582156200022c579182015b828111156200022b5782518255916020019190600101906200020e565b5b5090506200023b91906200023f565b5090565b5b808211156200025a57600081600090555060010162000240565b5090565b600060028204905060018216806200027757607f821691505b602082108114156200028e576200028d62000294565b5b50919050565b7f4e487b7100000000000000000000000000000000000000000000000000000000600052602260045260246000fd5b61557580620002d36000396000f3fe608060405234801561001057600080fd5b506004361061012c5760003560e01c80636352211e116100ad578063a22cb46511610071578063a22cb46514610343578063b88d4fde1461035f578063c87b56dd1461037b578063e985e9c5146103ab578063f2fde38b146103db5761012c565b80636352211e1461029d57806370a08231146102cd578063715018a6146102fd5780638da5cb5b1461030757806395d89b41146103255761012c565b806323b872dd116100f457806323b872dd146101e95780632f745c591461020557806342842e0e146102355780634f6ccce7146102515780635768f271146102815761012c565b806301ffc9a71461013157806306fdde0314610161578063081812fc1461017f578063095ea7b3146101af57806318160ddd146101cb575b600080fd5b61014b60048036038101906101469190613ec2565b6103f7565b60405161015891906144c6565b60405180910390f35b610169610471565b60405161017691906144e1565b60405180910390f35b61019960048036038101906101949190613f14565b610503565b6040516101a6919061445f565b60405180910390f35b6101c960048036038101906101c49190613e45565b610588565b005b6101d36106a0565b6040516101e09190614783565b60405180910390f35b61020360048036038101906101fe9190613d3f565b6106ad565b005b61021f600480360381019061021a9190613e45565b61070d565b60405161022c9190614783565b60405180910390f35b61024f600480360381019061024a9190613d3f565b6107b2565b005b61026b60048036038101906102669190613f14565b6107d2565b6040516102789190614783565b60405180910390f35b61029b60048036038101906102969190613e81565b610869565b005b6102b760048036038101906102b29190613f14565b610acb565b6040516102c4919061445f565b60405180910390f35b6102e760048036038101906102e29190613cda565b610b7d565b6040516102f49190614783565b60405180910390f35b610305610c35565b005b61030f610cbd565b60405161031c919061445f565b60405180910390f35b61032d610ce7565b60405161033a91906144e1565b60405180910390f35b61035d60048036038101906103589190613e09565b610d79565b005b61037960048036038101906103749190613d8e565b610d8f565b005b61039560048036038101906103909190613f14565b610df1565b6040516103a291906144e1565b60405180910390f35b6103c560048036038101906103c09190613d03565b612002565b6040516103d291906144c6565b60405180910390f35b6103f560048036038101906103f09190613cda565b612096565b005b60007f780e9d63000000000000000000000000000000000000000000000000000000007bffffffffffffffffffffffffffffffffffffffffffffffffffffffff1916827bffffffffffffffffffffffffffffffffffffffffffffffffffffffff1916148061046a57506104698261218e565b5b9050919050565b60606000805461048090614a5f565b80601f01602080910402602001604051908101604052809291908181526020018280546104ac90614a5f565b80156104f95780601f106104ce576101008083540402835291602001916104f9565b820191906000526020600020905b8154815290600101906020018083116104dc57829003601f168201915b5050505050905090565b600061050e82612270565b61054d576040517f08c379a0000000000000000000000000000000000000000000000000000000008152600401610544906146a3565b60405180910390fd5b6004600083815260200190815260200160002060009054906101000a900473ffffffffffffffffffffffffffffffffffffffff169050919050565b600061059382610acb565b90508073ffffffffffffffffffffffffffffffffffffffff168373ffffffffffffffffffffffffffffffffffffffff161415610604576040517f08c379a00000000000000000000000000000000000000000000000000000000081526004016105fb90614703565b60405180910390fd5b8073ffffffffffffffffffffffffffffffffffffffff166106236122dc565b73ffffffffffffffffffffffffffffffffffffffff16148061065257506106518161064c6122dc565b612002565b5b610691576040517f08c379a000000000000000000000000000000000000000000000000000000000815260040161068890614603565b60405180910390fd5b61069b83836122e4565b505050565b6000600880549050905090565b6106be6106b86122dc565b8261239d565b6106fd576040517f08c379a00000000000000000000000000000000000000000000000000000000081526004016106f490614723565b60405180910390fd5b61070883838361247b565b505050565b600061071883610b7d565b8210610759576040517f08c379a000000000000000000000000000000000000000000000000000000000815260040161075090614503565b60405180910390fd5b600660008473ffffffffffffffffffffffffffffffffffffffff1673ffffffffffffffffffffffffffffffffffffffff168152602001908152602001600020600083815260200190815260200160002054905092915050565b6107cd83838360405180602001604052806000815250610d8f565b505050565b60006107dc6106a0565b821061081d576040517f08c379a000000000000000000000000000000000000000000000000000000000815260040161081490614743565b60405180910390fd5b60088281548110610857577f4e487b7100000000000000000000000000000000000000000000000000000000600052603260045260246000fd5b90600052602060002001549050919050565b6002600a5414156108af576040517f08c379a00000000000000000000000000000000000000000000000000000000081526004016108a690614763565b60405180910390fd5b6002600a8190555060088151146108fb576040517f08c379a00000000000000000000000000000000000000000000000000000000081526004016108f2906146e3565b60405180910390fd5b6000600867ffffffffffffffff81111561093e577f4e487b7100000000000000000000000000000000000000000000000000000000600052604160045260246000fd5b60405190808252806020026020018201604052801561097157816020015b606081526020019060019003908161095c5790505b50905060005b6008811015610a695760008382815181106109bb577f4e487b7100000000000000000000000000000000000000000000000000000000600052603260045260246000fd5b6020026020010151905060396109d0826126e2565b10610a10576040517f08c379a0000000000000000000000000000000000000000000000000000000008152600401610a0790614663565b60405180910390fd5b80838381518110610a4a577f4e487b7100000000000000000000000000000000000000000000000000000000600052603260045260246000fd5b6020026020010181905250508080610a6190614ac2565b915050610977565b5080600d6000610a79600c612a37565b81526020019081526020016000209080519060200190610a9a929190613962565b50610ab5610aa66122dc565b610ab0600c612a37565b612a45565b610abf600c612a63565b506001600a8190555050565b6000806002600084815260200190815260200160002060009054906101000a900473ffffffffffffffffffffffffffffffffffffffff169050600073ffffffffffffffffffffffffffffffffffffffff168173ffffffffffffffffffffffffffffffffffffffff161415610b74576040517f08c379a0000000000000000000000000000000000000000000000000000000008152600401610b6b90614643565b60405180910390fd5b80915050919050565b60008073ffffffffffffffffffffffffffffffffffffffff168273ffffffffffffffffffffffffffffffffffffffff161415610bee576040517f08c379a0000000000000000000000000000000000000000000000000000000008152600401610be590614623565b60405180910390fd5b600360008373ffffffffffffffffffffffffffffffffffffffff1673ffffffffffffffffffffffffffffffffffffffff168152602001908152602001600020549050919050565b610c3d6122dc565b73ffffffffffffffffffffffffffffffffffffffff16610c5b610cbd565b73ffffffffffffffffffffffffffffffffffffffff1614610cb1576040517f08c379a0000000000000000000000000000000000000000000000000000000008152600401610ca8906146c3565b60405180910390fd5b610cbb6000612a79565b565b6000600b60009054906101000a900473ffffffffffffffffffffffffffffffffffffffff16905090565b606060018054610cf690614a5f565b80601f0160208091040260200160405190810160405280929190818152602001828054610d2290614a5f565b8015610d6f5780601f10610d4457610100808354040283529160200191610d6f565b820191906000526020600020905b815481529060010190602001808311610d5257829003601f168201915b5050505050905090565b610d8b610d846122dc565b8383612b3f565b5050565b610da0610d9a6122dc565b8361239d565b610ddf576040517f08c379a0000000000000000000000000000000000000000000000000000000008152600401610dd690614723565b60405180910390fd5b610deb84848484612cac565b50505050565b6060610dfb6139c2565b60405180610140016040528061010881526020016153d2610108913981600060128110610e51577f4e487b7100000000000000000000000000000000000000000000000000000000600052603260045260246000fd5b6020020181905250600d6000848152602001908152602001600020600081548110610ea5577f4e487b7100000000000000000000000000000000000000000000000000000000600052603260045260246000fd5b906000526020600020018054610eba90614a5f565b80601f0160208091040260200160405190810160405280929190818152602001828054610ee690614a5f565b8015610f335780601f10610f0857610100808354040283529160200191610f33565b820191906000526020600020905b815481529060010190602001808311610f1657829003601f168201915b505050505081600160128110610f72577f4e487b7100000000000000000000000000000000000000000000000000000000600052603260045260246000fd5b60200201819052506040518060600160405280602881526020016152ef6028913981600260128110610fcd577f4e487b7100000000000000000000000000000000000000000000000000000000600052603260045260246000fd5b6020020181905250600d6000848152602001908152602001600020600181548110611021577f4e487b7100000000000000000000000000000000000000000000000000000000600052603260045260246000fd5b90600052602060002001805461103690614a5f565b80601f016020809104026020016040519081016040528092919081815260200182805461106290614a5f565b80156110af5780601f10611084576101008083540402835291602001916110af565b820191906000526020600020905b81548152906001019060200180831161109257829003601f168201915b5050505050816003601281106110ee577f4e487b7100000000000000000000000000000000000000000000000000000000600052603260045260246000fd5b602002018190525060405180606001604052806028815260200161529e6028913981600460128110611149577f4e487b7100000000000000000000000000000000000000000000000000000000600052603260045260246000fd5b6020020181905250600d600084815260200190815260200160002060028154811061119d577f4e487b7100000000000000000000000000000000000000000000000000000000600052603260045260246000fd5b9060005260206000200180546111b290614a5f565b80601f01602080910402602001604051908101604052809291908181526020018280546111de90614a5f565b801561122b5780601f106112005761010080835404028352916020019161122b565b820191906000526020600020905b81548152906001019060200180831161120e57829003601f168201915b50505050508160056012811061126a577f4e487b7100000000000000000000000000000000000000000000000000000000600052603260045260246000fd5b602002018190525060405180606001604052806029815260200161531760299139816006601281106112c5577f4e487b7100000000000000000000000000000000000000000000000000000000600052603260045260246000fd5b6020020181905250600d6000848152602001908152602001600020600381548110611319577f4e487b7100000000000000000000000000000000000000000000000000000000600052603260045260246000fd5b90600052602060002001805461132e90614a5f565b80601f016020809104026020016040519081016040528092919081815260200182805461135a90614a5f565b80156113a75780601f1061137c576101008083540402835291602001916113a7565b820191906000526020600020905b81548152906001019060200180831161138a57829003601f168201915b5050505050816007601281106113e6577f4e487b7100000000000000000000000000000000000000000000000000000000600052603260045260246000fd5b60200201819052506040518060600160405280602981526020016153406029913981600860128110611441577f4e487b7100000000000000000000000000000000000000000000000000000000600052603260045260246000fd5b6020020181905250600d6000848152602001908152602001600020600481548110611495577f4e487b7100000000000000000000000000000000000000000000000000000000600052603260045260246000fd5b9060005260206000200180546114aa90614a5f565b80601f01602080910402602001604051908101604052809291908181526020018280546114d690614a5f565b80156115235780601f106114f857610100808354040283529160200191611523565b820191906000526020600020905b81548152906001019060200180831161150657829003601f168201915b505050505081600960128110611562577f4e487b7100000000000000000000000000000000000000000000000000000000600052603260045260246000fd5b60200201819052506040518060600160405280602981526020016153a96029913981600a601281106115bd577f4e487b7100000000000000000000000000000000000000000000000000000000600052603260045260246000fd5b6020020181905250600d6000848152602001908152602001600020600581548110611611577f4e487b7100000000000000000000000000000000000000000000000000000000600052603260045260246000fd5b90600052602060002001805461162690614a5f565b80601f016020809104026020016040519081016040528092919081815260200182805461165290614a5f565b801561169f5780601f106116745761010080835404028352916020019161169f565b820191906000526020600020905b81548152906001019060200180831161168257829003601f168201915b505050505081600b601281106116de577f4e487b7100000000000000000000000000000000000000000000000000000000600052603260045260246000fd5b60200201819052506040518060600160405280602981526020016152c66029913981600c60128110611739577f4e487b7100000000000000000000000000000000000000000000000000000000600052603260045260246000fd5b6020020181905250600d600084815260200190815260200160002060068154811061178d577f4e487b7100000000000000000000000000000000000000000000000000000000600052603260045260246000fd5b9060005260206000200180546117a290614a5f565b80601f01602080910402602001604051908101604052809291908181526020018280546117ce90614a5f565b801561181b5780601f106117f05761010080835404028352916020019161181b565b820191906000526020600020905b8154815290600101906020018083116117fe57829003601f168201915b505050505081600d6012811061185a577f4e487b7100000000000000000000000000000000000000000000000000000000600052603260045260246000fd5b60200201819052506040518060600160405280602981526020016155176029913981600e601281106118b5577f4e487b7100000000000000000000000000000000000000000000000000000000600052603260045260246000fd5b6020020181905250600d6000848152602001908152602001600020600781548110611909577f4e487b7100000000000000000000000000000000000000000000000000000000600052603260045260246000fd5b90600052602060002001805461191e90614a5f565b80601f016020809104026020016040519081016040528092919081815260200182805461194a90614a5f565b80156119975780601f1061196c57610100808354040283529160200191611997565b820191906000526020600020905b81548152906001019060200180831161197a57829003601f168201915b505050505081600f601281106119d6577f4e487b7100000000000000000000000000000000000000000000000000000000600052603260045260246000fd5b60200201819052506040518060600160405280603d81526020016154da603d913981601060128110611a31577f4e487b7100000000000000000000000000000000000000000000000000000000600052603260045260246000fd5b60200201819052506040518060400160405280600d81526020017f3c2f746578743e3c2f7376673e0000000000000000000000000000000000000081525081601160128110611aa9577f4e487b7100000000000000000000000000000000000000000000000000000000600052603260045260246000fd5b6020020181905250600081600060128110611aed577f4e487b7100000000000000000000000000000000000000000000000000000000600052603260045260246000fd5b602002015182600160128110611b2c577f4e487b7100000000000000000000000000000000000000000000000000000000600052603260045260246000fd5b602002015183600260128110611b6b577f4e487b7100000000000000000000000000000000000000000000000000000000600052603260045260246000fd5b602002015184600360128110611baa577f4e487b7100000000000000000000000000000000000000000000000000000000600052603260045260246000fd5b602002015185600460128110611be9577f4e487b7100000000000000000000000000000000000000000000000000000000600052603260045260246000fd5b602002015186600560128110611c28577f4e487b7100000000000000000000000000000000000000000000000000000000600052603260045260246000fd5b602002015187600660128110611c67577f4e487b7100000000000000000000000000000000000000000000000000000000600052603260045260246000fd5b602002015188600760128110611ca6577f4e487b7100000000000000000000000000000000000000000000000000000000600052603260045260246000fd5b602002015189600860128110611ce5577f4e487b7100000000000000000000000000000000000000000000000000000000600052603260045260246000fd5b6020020151604051602001611d0299989796959493929190614379565b60405160208183030381529060405290508082600960128110611d4e577f4e487b7100000000000000000000000000000000000000000000000000000000600052603260045260246000fd5b602002015183600a60128110611d8d577f4e487b7100000000000000000000000000000000000000000000000000000000600052603260045260246000fd5b602002015184600b60128110611dcc577f4e487b7100000000000000000000000000000000000000000000000000000000600052603260045260246000fd5b602002015185600c60128110611e0b577f4e487b7100000000000000000000000000000000000000000000000000000000600052603260045260246000fd5b602002015186600d60128110611e4a577f4e487b7100000000000000000000000000000000000000000000000000000000600052603260045260246000fd5b602002015187600e60128110611e89577f4e487b7100000000000000000000000000000000000000000000000000000000600052603260045260246000fd5b602002015188600f60128110611ec8577f4e487b7100000000000000000000000000000000000000000000000000000000600052603260045260246000fd5b602002015189601060128110611f07577f4e487b7100000000000000000000000000000000000000000000000000000000600052603260045260246000fd5b6020020151604051602001611f2499989796959493929190614379565b60405160208183030381529060405290508082601160128110611f70577f4e487b7100000000000000000000000000000000000000000000000000000000600052603260045260246000fd5b6020020151604051602001611f86929190614355565b60405160208183030381529060405290506000611fd3611fa586612d08565b611fae84612eb5565b604051602001611fbf9291906143f8565b604051602081830303815290604052612eb5565b905080604051602001611fe6919061443d565b6040516020818303038152906040529150819350505050919050565b6000600560008473ffffffffffffffffffffffffffffffffffffffff1673ffffffffffffffffffffffffffffffffffffffff16815260200190815260200160002060008373ffffffffffffffffffffffffffffffffffffffff1673ffffffffffffffffffffffffffffffffffffffff16815260200190815260200160002060009054906101000a900460ff16905092915050565b61209e6122dc565b73ffffffffffffffffffffffffffffffffffffffff166120bc610cbd565b73ffffffffffffffffffffffffffffffffffffffff1614612112576040517f08c379a0000000000000000000000000000000000000000000000000000000008152600401612109906146c3565b60405180910390fd5b600073ffffffffffffffffffffffffffffffffffffffff168173ffffffffffffffffffffffffffffffffffffffff161415612182576040517f08c379a000000000000000000000000000000000000000000000000000000000815260040161217990614543565b60405180910390fd5b61218b81612a79565b50565b60007f80ac58cd000000000000000000000000000000000000000000000000000000007bffffffffffffffffffffffffffffffffffffffffffffffffffffffff1916827bffffffffffffffffffffffffffffffffffffffffffffffffffffffff1916148061225957507f5b5e139f000000000000000000000000000000000000000000000000000000007bffffffffffffffffffffffffffffffffffffffffffffffffffffffff1916827bffffffffffffffffffffffffffffffffffffffffffffffffffffffff1916145b80612269575061226882613073565b5b9050919050565b60008073ffffffffffffffffffffffffffffffffffffffff166002600084815260200190815260200160002060009054906101000a900473ffffffffffffffffffffffffffffffffffffffff1673ffffffffffffffffffffffffffffffffffffffff1614159050919050565b600033905090565b816004600083815260200190815260200160002060006101000a81548173ffffffffffffffffffffffffffffffffffffffff021916908373ffffffffffffffffffffffffffffffffffffffff160217905550808273ffffffffffffffffffffffffffffffffffffffff1661235783610acb565b73ffffffffffffffffffffffffffffffffffffffff167f8c5be1e5ebec7d5bd14f71427d1e84f3dd0314c0f7b2291e5b200ac8c7c3b92560405160405180910390a45050565b60006123a882612270565b6123e7576040517f08c379a00000000000000000000000000000000000000000000000000000000081526004016123de906145e3565b60405180910390fd5b60006123f283610acb565b90508073ffffffffffffffffffffffffffffffffffffffff168473ffffffffffffffffffffffffffffffffffffffff16148061246157508373ffffffffffffffffffffffffffffffffffffffff1661244984610503565b73ffffffffffffffffffffffffffffffffffffffff16145b8061247257506124718185612002565b5b91505092915050565b8273ffffffffffffffffffffffffffffffffffffffff1661249b82610acb565b73ffffffffffffffffffffffffffffffffffffffff16146124f1576040517f08c379a00000000000000000000000000000000000000000000000000000000081526004016124e890614563565b60405180910390fd5b600073ffffffffffffffffffffffffffffffffffffffff168273ffffffffffffffffffffffffffffffffffffffff161415612561576040517f08c379a0000000000000000000000000000000000000000000000000000000008152600401612558906145a3565b60405180910390fd5b61256c8383836130dd565b6125776000826122e4565b6001600360008573ffffffffffffffffffffffffffffffffffffffff1673ffffffffffffffffffffffffffffffffffffffff16815260200190815260200160002060008282546125c79190614975565b925050819055506001600360008473ffffffffffffffffffffffffffffffffffffffff1673ffffffffffffffffffffffffffffffffffffffff168152602001908152602001600020600082825461261e9190614894565b92505081905550816002600083815260200190815260200160002060006101000a81548173ffffffffffffffffffffffffffffffffffffffff021916908373ffffffffffffffffffffffffffffffffffffffff160217905550808273ffffffffffffffffffffffffffffffffffffffff168473ffffffffffffffffffffffffffffffffffffffff167fddf252ad1be2c89b69c2b068fc378daa952ba7f163c4a11628f55a4df523b3ef60405160405180910390a46126dd8383836131f1565b505050565b6000806000905060008390505b8051821015612a3057600060f81b6007828481518110612738577f4e487b7100000000000000000000000000000000000000000000000000000000600052603260045260246000fd5b602001015160f81c60f81b7effffffffffffffffffffffffffffffffffffffffffffffffffffffffffffff1916901c7effffffffffffffffffffffffffffffffffffffffffffffffffffffffffffff191614156127a35760018261279c9190614894565b9150612a1d565b600660f81b7effffffffffffffffffffffffffffffffffffffffffffffffffffffffffffff19166005828481518110612805577f4e487b7100000000000000000000000000000000000000000000000000000000600052603260045260246000fd5b602001015160f81c60f81b7effffffffffffffffffffffffffffffffffffffffffffffffffffffffffffff1916901c7effffffffffffffffffffffffffffffffffffffffffffffffffffffffffffff19161415612870576002826128699190614894565b9150612a1c565b600e60f81b7effffffffffffffffffffffffffffffffffffffffffffffffffffffffffffff191660048284815181106128d2577f4e487b7100000000000000000000000000000000000000000000000000000000600052603260045260246000fd5b602001015160f81c60f81b7effffffffffffffffffffffffffffffffffffffffffffffffffffffffffffff1916901c7effffffffffffffffffffffffffffffffffffffffffffffffffffffffffffff1916141561293d576003826129369190614894565b9150612a1b565b601e60f81b7effffffffffffffffffffffffffffffffffffffffffffffffffffffffffffff1916600382848151811061299f577f4e487b7100000000000000000000000000000000000000000000000000000000600052603260045260246000fd5b602001015160f81c60f81b7effffffffffffffffffffffffffffffffffffffffffffffffffffffffffffff1916901c7effffffffffffffffffffffffffffffffffffffffffffffffffffffffffffff19161415612a0a57600482612a039190614894565b9150612a1a565b600182612a179190614894565b91505b5b5b5b8280612a2890614ac2565b9350506126ef565b5050919050565b600081600001549050919050565b612a5f8282604051806020016040528060008152506131f6565b5050565b6001816000016000828254019250508190555050565b6000600b60009054906101000a900473ffffffffffffffffffffffffffffffffffffffff16905081600b60006101000a81548173ffffffffffffffffffffffffffffffffffffffff021916908373ffffffffffffffffffffffffffffffffffffffff1602179055508173ffffffffffffffffffffffffffffffffffffffff168173ffffffffffffffffffffffffffffffffffffffff167f8be0079c531659141344cd1fd0a4f28419497f9722a3daafe3b4186f6b6457e060405160405180910390a35050565b8173ffffffffffffffffffffffffffffffffffffffff168373ffffffffffffffffffffffffffffffffffffffff161415612bae576040517f08c379a0000000000000000000000000000000000000000000000000000000008152600401612ba5906145c3565b60405180910390fd5b80600560008573ffffffffffffffffffffffffffffffffffffffff1673ffffffffffffffffffffffffffffffffffffffff16815260200190815260200160002060008473ffffffffffffffffffffffffffffffffffffffff1673ffffffffffffffffffffffffffffffffffffffff16815260200190815260200160002060006101000a81548160ff0219169083151502179055508173ffffffffffffffffffffffffffffffffffffffff168373ffffffffffffffffffffffffffffffffffffffff167f17307eab39ab6107e8899845ad3d59bd9653f200f220920489ca2b5937696c3183604051612c9f91906144c6565b60405180910390a3505050565b612cb784848461247b565b612cc384848484613251565b612d02576040517f08c379a0000000000000000000000000000000000000000000000000000000008152600401612cf990614523565b60405180910390fd5b50505050565b60606000821415612d50576040518060400160405280600181526020017f30000000000000000000000000000000000000000000000000000000000000008152509050612eb0565b600082905060005b60008214612d82578080612d6b90614ac2565b915050600a82612d7b91906148ea565b9150612d58565b60008167ffffffffffffffff811115612dc4577f4e487b7100000000000000000000000000000000000000000000000000000000600052604160045260246000fd5b6040519080825280601f01601f191660200182016040528015612df65781602001600182028036833780820191505090505b5090505b60008514612ea957600182612e0f9190614975565b9150600a85612e1e9190614b0b565b6030612e2a9190614894565b60f81b818381518110612e66577f4e487b7100000000000000000000000000000000000000000000000000000000600052603260045260246000fd5b60200101907effffffffffffffffffffffffffffffffffffffffffffffffffffffffffffff1916908160001a905350600a85612ea291906148ea565b9450612dfa565b8093505050505b919050565b60606000825190506000811415612ede576040518060200160405280600081525091505061306e565b60006003600283612eef9190614894565b612ef991906148ea565b6004612f05919061491b565b90506000602082612f169190614894565b67ffffffffffffffff811115612f55577f4e487b7100000000000000000000000000000000000000000000000000000000600052604160045260246000fd5b6040519080825280601f01601f191660200182016040528015612f875781602001600182028036833780820191505090505b5090506000604051806060016040528060408152602001615369604091399050600181016020830160005b8681101561302b5760038101905062ffffff818a015116603f8160121c168401518060081b905060ff603f83600c1c1686015116810190508060081b905060ff603f8360061c1686015116810190508060081b905060ff603f831686015116810190508060e01b90508084526004840193505050612fb2565b506003860660018114613045576002811461305557613060565b613d3d60f01b6002830352613060565b603d60f81b60018303525b508484525050819450505050505b919050565b60007f01ffc9a7000000000000000000000000000000000000000000000000000000007bffffffffffffffffffffffffffffffffffffffffffffffffffffffff1916827bffffffffffffffffffffffffffffffffffffffffffffffffffffffff1916149050919050565b6130e88383836133e8565b600073ffffffffffffffffffffffffffffffffffffffff168373ffffffffffffffffffffffffffffffffffffffff16141561312b57613126816133ed565b61316a565b8173ffffffffffffffffffffffffffffffffffffffff168373ffffffffffffffffffffffffffffffffffffffff1614613169576131688382613436565b5b5b600073ffffffffffffffffffffffffffffffffffffffff168273ffffffffffffffffffffffffffffffffffffffff1614156131ad576131a8816135a3565b6131ec565b8273ffffffffffffffffffffffffffffffffffffffff168273ffffffffffffffffffffffffffffffffffffffff16146131eb576131ea82826136e6565b5b5b505050565b505050565b6132008383613765565b61320d6000848484613251565b61324c576040517f08c379a000000000000000000000000000000000000000000000000000000000815260040161324390614523565b60405180910390fd5b505050565b60006132728473ffffffffffffffffffffffffffffffffffffffff1661393f565b156133db578373ffffffffffffffffffffffffffffffffffffffff1663150b7a0261329b6122dc565b8786866040518563ffffffff1660e01b81526004016132bd949392919061447a565b602060405180830381600087803b1580156132d757600080fd5b505af192505050801561330857506040513d601f19601f820116820180604052508101906133059190613eeb565b60015b61338b573d8060008114613338576040519150601f19603f3d011682016040523d82523d6000602084013e61333d565b606091505b50600081511415613383576040517f08c379a000000000000000000000000000000000000000000000000000000000815260040161337a90614523565b60405180910390fd5b805181602001fd5b63150b7a0260e01b7bffffffffffffffffffffffffffffffffffffffffffffffffffffffff1916817bffffffffffffffffffffffffffffffffffffffffffffffffffffffff1916149150506133e0565b600190505b949350505050565b505050565b6008805490506009600083815260200190815260200160002081905550600881908060018154018082558091505060019003906000526020600020016000909190919091505550565b6000600161344384610b7d565b61344d9190614975565b9050600060076000848152602001908152602001600020549050818114613532576000600660008673ffffffffffffffffffffffffffffffffffffffff1673ffffffffffffffffffffffffffffffffffffffff168152602001908152602001600020600084815260200190815260200160002054905080600660008773ffffffffffffffffffffffffffffffffffffffff1673ffffffffffffffffffffffffffffffffffffffff168152602001908152602001600020600084815260200190815260200160002081905550816007600083815260200190815260200160002081905550505b6007600084815260200190815260200160002060009055600660008573ffffffffffffffffffffffffffffffffffffffff1673ffffffffffffffffffffffffffffffffffffffff16815260200190815260200160002060008381526020019081526020016000206000905550505050565b600060016008805490506135b79190614975565b905060006009600084815260200190815260200160002054905060006008838154811061360d577f4e487b7100000000000000000000000000000000000000000000000000000000600052603260045260246000fd5b906000526020600020015490508060088381548110613655577f4e487b7100000000000000000000000000000000000000000000000000000000600052603260045260246000fd5b9060005260206000200181905550816009600083815260200190815260200160002081905550600960008581526020019081526020016000206000905560088054806136ca577f4e487b7100000000000000000000000000000000000000000000000000000000600052603160045260246000fd5b6001900381819060005260206000200160009055905550505050565b60006136f183610b7d565b905081600660008573ffffffffffffffffffffffffffffffffffffffff1673ffffffffffffffffffffffffffffffffffffffff168152602001908152602001600020600083815260200190815260200160002081905550806007600084815260200190815260200160002081905550505050565b600073ffffffffffffffffffffffffffffffffffffffff168273ffffffffffffffffffffffffffffffffffffffff1614156137d5576040517f08c379a00000000000000000000000000000000000000000000000000000000081526004016137cc90614683565b60405180910390fd5b6137de81612270565b1561381e576040517f08c379a000000000000000000000000000000000000000000000000000000000815260040161381590614583565b60405180910390fd5b61382a600083836130dd565b6001600360008473ffffffffffffffffffffffffffffffffffffffff1673ffffffffffffffffffffffffffffffffffffffff168152602001908152602001600020600082825461387a9190614894565b92505081905550816002600083815260200190815260200160002060006101000a81548173ffffffffffffffffffffffffffffffffffffffff021916908373ffffffffffffffffffffffffffffffffffffffff160217905550808273ffffffffffffffffffffffffffffffffffffffff16600073ffffffffffffffffffffffffffffffffffffffff167fddf252ad1be2c89b69c2b068fc378daa952ba7f163c4a11628f55a4df523b3ef60405160405180910390a461393b600083836131f1565b5050565b6000808273ffffffffffffffffffffffffffffffffffffffff163b119050919050565b8280548282559060005260206000209081019282156139b1579160200282015b828111156139b05782518290805190602001906139a09291906139ea565b5091602001919060010190613982565b5b5090506139be9190613a70565b5090565b6040518061024001604052806012905b60608152602001906001900390816139d25790505090565b8280546139f690614a5f565b90600052602060002090601f016020900481019282613a185760008555613a5f565b82601f10613a3157805160ff1916838001178555613a5f565b82800160010185558215613a5f579182015b82811115613a5e578251825591602001919060010190613a43565b5b509050613a6c9190613a94565b5090565b5b80821115613a905760008181613a879190613ab1565b50600101613a71565b5090565b5b80821115613aad576000816000905550600101613a95565b5090565b508054613abd90614a5f565b6000825580601f10613acf5750613aee565b601f016020900490600052602060002090810190613aed9190613a94565b5b50565b6000613b04613aff846147c3565b61479e565b90508083825260208201905082856020860282011115613b2357600080fd5b60005b85811015613b6d57813567ffffffffffffffff811115613b4557600080fd5b808601613b528982613c9b565b85526020850194506020840193505050600181019050613b26565b5050509392505050565b6000613b8a613b85846147ef565b61479e565b905082815260208101848484011115613ba257600080fd5b613bad848285614a1d565b509392505050565b6000613bc8613bc384614820565b61479e565b905082815260208101848484011115613be057600080fd5b613beb848285614a1d565b509392505050565b600081359050613c0281615241565b92915050565b600082601f830112613c1957600080fd5b8135613c29848260208601613af1565b91505092915050565b600081359050613c4181615258565b92915050565b600081359050613c568161526f565b92915050565b600081519050613c6b8161526f565b92915050565b600082601f830112613c8257600080fd5b8135613c92848260208601613b77565b91505092915050565b600082601f830112613cac57600080fd5b8135613cbc848260208601613bb5565b91505092915050565b600081359050613cd481615286565b92915050565b600060208284031215613cec57600080fd5b6000613cfa84828501613bf3565b91505092915050565b60008060408385031215613d1657600080fd5b6000613d2485828601613bf3565b9250506020613d3585828601613bf3565b9150509250929050565b600080600060608486031215613d5457600080fd5b6000613d6286828701613bf3565b9350506020613d7386828701613bf3565b9250506040613d8486828701613cc5565b9150509250925092565b60008060008060808587031215613da457600080fd5b6000613db287828801613bf3565b9450506020613dc387828801613bf3565b9350506040613dd487828801613cc5565b925050606085013567ffffffffffffffff811115613df157600080fd5b613dfd87828801613c71565b91505092959194509250565b60008060408385031215613e1c57600080fd5b6000613e2a85828601613bf3565b9250506020613e3b85828601613c32565b9150509250929050565b60008060408385031215613e5857600080fd5b6000613e6685828601613bf3565b9250506020613e7785828601613cc5565b9150509250929050565b600060208284031215613e9357600080fd5b600082013567ffffffffffffffff811115613ead57600080fd5b613eb984828501613c08565b91505092915050565b600060208284031215613ed457600080fd5b6000613ee284828501613c47565b91505092915050565b600060208284031215613efd57600080fd5b6000613f0b84828501613c5c565b91505092915050565b600060208284031215613f2657600080fd5b6000613f3484828501613cc5565b91505092915050565b613f46816149a9565b82525050565b613f55816149bb565b82525050565b6000613f6682614851565b613f708185614867565b9350613f80818560208601614a2c565b613f8981614bf8565b840191505092915050565b6000613f9f8261485c565b613fa98185614878565b9350613fb9818560208601614a2c565b613fc281614bf8565b840191505092915050565b6000613fd88261485c565b613fe28185614889565b9350613ff2818560208601614a2c565b80840191505092915050565b600061400b602b83614878565b915061401682614c09565b604082019050919050565b600061402e603283614878565b915061403982614c58565b604082019050919050565b6000614051602683614878565b915061405c82614ca7565b604082019050919050565b6000614074602583614878565b915061407f82614cf6565b604082019050919050565b6000614097601c83614878565b91506140a282614d45565b602082019050919050565b60006140ba602483614878565b91506140c582614d6e565b604082019050919050565b60006140dd601983614878565b91506140e882614dbd565b602082019050919050565b6000614100602c83614878565b915061410b82614de6565b604082019050919050565b6000614123603883614878565b915061412e82614e35565b604082019050919050565b6000614146601583614889565b915061415182614e84565b601582019050919050565b6000614169602a83614878565b915061417482614ead565b604082019050919050565b600061418c602983614878565b915061419782614efc565b604082019050919050565b60006141af600283614889565b91506141ba82614f4b565b600282019050919050565b60006141d2602483614878565b91506141dd82614f74565b604082019050919050565b60006141f5602083614878565b915061420082614fc3565b602082019050919050565b6000614218602c83614878565b915061422382614fec565b604082019050919050565b600061423b602083614878565b91506142468261503b565b602082019050919050565b600061425e601083614878565b915061426982615064565b602082019050919050565b6000614281602183614878565b915061428c8261508d565b604082019050919050565b60006142a4601d83614889565b91506142af826150dc565b601d82019050919050565b60006142c7603183614878565b91506142d282615105565b604082019050919050565b60006142ea602c83614878565b91506142f582615154565b604082019050919050565b600061430d605e83614889565b9150614318826151a3565b605e82019050919050565b6000614330601f83614878565b915061433b82615218565b602082019050919050565b61434f81614a13565b82525050565b60006143618285613fcd565b915061436d8284613fcd565b91508190509392505050565b6000614385828c613fcd565b9150614391828b613fcd565b915061439d828a613fcd565b91506143a98289613fcd565b91506143b58288613fcd565b91506143c18287613fcd565b91506143cd8286613fcd565b91506143d98285613fcd565b91506143e58284613fcd565b91508190509a9950505050505050505050565b600061440382614139565b915061440f8285613fcd565b915061441a82614300565b91506144268284613fcd565b9150614431826141a2565b91508190509392505050565b600061444882614297565b91506144548284613fcd565b915081905092915050565b60006020820190506144746000830184613f3d565b92915050565b600060808201905061448f6000830187613f3d565b61449c6020830186613f3d565b6144a96040830185614346565b81810360608301526144bb8184613f5b565b905095945050505050565b60006020820190506144db6000830184613f4c565b92915050565b600060208201905081810360008301526144fb8184613f94565b905092915050565b6000602082019050818103600083015261451c81613ffe565b9050919050565b6000602082019050818103600083015261453c81614021565b9050919050565b6000602082019050818103600083015261455c81614044565b9050919050565b6000602082019050818103600083015261457c81614067565b9050919050565b6000602082019050818103600083015261459c8161408a565b9050919050565b600060208201905081810360008301526145bc816140ad565b9050919050565b600060208201905081810360008301526145dc816140d0565b9050919050565b600060208201905081810360008301526145fc816140f3565b9050919050565b6000602082019050818103600083015261461c81614116565b9050919050565b6000602082019050818103600083015261463c8161415c565b9050919050565b6000602082019050818103600083015261465c8161417f565b9050919050565b6000602082019050818103600083015261467c816141c5565b9050919050565b6000602082019050818103600083015261469c816141e8565b9050919050565b600060208201905081810360008301526146bc8161420b565b9050919050565b600060208201905081810360008301526146dc8161422e565b9050919050565b600060208201905081810360008301526146fc81614251565b9050919050565b6000602082019050818103600083015261471c81614274565b9050919050565b6000602082019050818103600083015261473c816142ba565b9050919050565b6000602082019050818103600083015261475c816142dd565b9050919050565b6000602082019050818103600083015261477c81614323565b9050919050565b60006020820190506147986000830184614346565b92915050565b60006147a86147b9565b90506147b48282614a91565b919050565b6000604051905090565b600067ffffffffffffffff8211156147de576147dd614bc9565b5b602082029050602081019050919050565b600067ffffffffffffffff82111561480a57614809614bc9565b5b61481382614bf8565b9050602081019050919050565b600067ffffffffffffffff82111561483b5761483a614bc9565b5b61484482614bf8565b9050602081019050919050565b600081519050919050565b600081519050919050565b600082825260208201905092915050565b600082825260208201905092915050565b600081905092915050565b600061489f82614a13565b91506148aa83614a13565b9250827fffffffffffffffffffffffffffffffffffffffffffffffffffffffffffffffff038211156148df576148de614b3c565b5b828201905092915050565b60006148f582614a13565b915061490083614a13565b9250826149105761490f614b6b565b5b828204905092915050565b600061492682614a13565b915061493183614a13565b9250817fffffffffffffffffffffffffffffffffffffffffffffffffffffffffffffffff048311821515161561496a57614969614b3c565b5b828202905092915050565b600061498082614a13565b915061498b83614a13565b92508282101561499e5761499d614b3c565b5b828203905092915050565b60006149b4826149f3565b9050919050565b60008115159050919050565b60007fffffffff0000000000000000000000000000000000000000000000000000000082169050919050565b600073ffffffffffffffffffffffffffffffffffffffff82169050919050565b6000819050919050565b82818337600083830152505050565b60005b83811015614a4a578082015181840152602081019050614a2f565b83811115614a59576000848401525b50505050565b60006002820490506001821680614a7757607f821691505b60208210811415614a8b57614a8a614b9a565b5b50919050565b614a9a82614bf8565b810181811067ffffffffffffffff82111715614ab957614ab8614bc9565b5b80604052505050565b6000614acd82614a13565b91507fffffffffffffffffffffffffffffffffffffffffffffffffffffffffffffffff821415614b0057614aff614b3c565b5b600182019050919050565b6000614b1682614a13565b9150614b2183614a13565b925082614b3157614b30614b6b565b5b828206905092915050565b7f4e487b7100000000000000000000000000000000000000000000000000000000600052601160045260246000fd5b7f4e487b7100000000000000000000000000000000000000000000000000000000600052601260045260246000fd5b7f4e487b7100000000000000000000000000000000000000000000000000000000600052602260045260246000fd5b7f4e487b7100000000000000000000000000000000000000000000000000000000600052604160045260246000fd5b6000601f19601f8301169050919050565b7f455243373231456e756d657261626c653a206f776e657220696e646578206f7560008201527f74206f6620626f756e6473000000000000000000000000000000000000000000602082015250565b7f4552433732313a207472616e7366657220746f206e6f6e20455243373231526560008201527f63656976657220696d706c656d656e7465720000000000000000000000000000602082015250565b7f4f776e61626c653a206e6577206f776e657220697320746865207a65726f206160008201527f6464726573730000000000000000000000000000000000000000000000000000602082015250565b7f4552433732313a207472616e736665722066726f6d20696e636f72726563742060008201527f6f776e6572000000000000000000000000000000000000000000000000000000602082015250565b7f4552433732313a20746f6b656e20616c7265616479206d696e74656400000000600082015250565b7f4552433732313a207472616e7366657220746f20746865207a65726f2061646460008201527f7265737300000000000000000000000000000000000000000000000000000000602082015250565b7f4552433732313a20617070726f766520746f2063616c6c657200000000000000600082015250565b7f4552433732313a206f70657261746f7220717565727920666f72206e6f6e657860008201527f697374656e7420746f6b656e0000000000000000000000000000000000000000602082015250565b7f4552433732313a20617070726f76652063616c6c6572206973206e6f74206f7760008201527f6e6572206e6f7220617070726f76656420666f7220616c6c0000000000000000602082015250565b7f7b226e616d65223a202256616c656e74696e6520230000000000000000000000600082015250565b7f4552433732313a2062616c616e636520717565727920666f7220746865207a6560008201527f726f206164647265737300000000000000000000000000000000000000000000602082015250565b7f4552433732313a206f776e657220717565727920666f72206e6f6e657869737460008201527f656e7420746f6b656e0000000000000000000000000000000000000000000000602082015250565b7f227d000000000000000000000000000000000000000000000000000000000000600082015250565b7f4861732061206c696e65206c6f6e676572207468616e2035362063686172616360008201527f7465727300000000000000000000000000000000000000000000000000000000602082015250565b7f4552433732313a206d696e7420746f20746865207a65726f2061646472657373600082015250565b7f4552433732313a20617070726f76656420717565727920666f72206e6f6e657860008201527f697374656e7420746f6b656e0000000000000000000000000000000000000000602082015250565b7f4f776e61626c653a2063616c6c6572206973206e6f7420746865206f776e6572600082015250565b7f546f6b656e20494420696e76616c696400000000000000000000000000000000600082015250565b7f4552433732313a20617070726f76616c20746f2063757272656e74206f776e6560008201527f7200000000000000000000000000000000000000000000000000000000000000602082015250565b7f646174613a6170706c69636174696f6e2f6a736f6e3b6261736536342c000000600082015250565b7f4552433732313a207472616e736665722063616c6c6572206973206e6f74206f60008201527f776e6572206e6f7220617070726f766564000000000000000000000000000000602082015250565b7f455243373231456e756d657261626c653a20676c6f62616c20696e646578206f60008201527f7574206f6620626f756e64730000000000000000000000000000000000000000602082015250565b7f222c20226465736372697074696f6e223a202253656e6420796f75722076616c60008201527f656e74696e65206120637573746f6d20706f656d203a29222c2022696d61676560208201527f223a2022646174613a696d6167652f7376672b786d6c3b6261736536342c0000604082015250565b7f5265656e7472616e637947756172643a207265656e7472616e742063616c6c00600082015250565b61524a816149a9565b811461525557600080fd5b50565b615261816149bb565b811461526c57600080fd5b50565b615278816149c7565b811461528357600080fd5b50565b61528f81614a13565b811461529a57600080fd5b5056fe3c2f746578743e3c7465787420783d2231302220793d2238302220636c6173733d2262617365223e3c2f746578743e3c7465787420783d2231302220793d223230302220636c6173733d2262617365223e3c2f746578743e3c7465787420783d2231302220793d2235302220636c6173733d2262617365223e3c2f746578743e3c7465787420783d2231302220793d223131302220636c6173733d2262617365223e3c2f746578743e3c7465787420783d2231302220793d223134302220636c6173733d2262617365223e4142434445464748494a4b4c4d4e4f505152535455565758595a6162636465666768696a6b6c6d6e6f707172737475767778797a303132333435363738392b2f3c2f746578743e3c7465787420783d2231302220793d223137302220636c6173733d2262617365223e3c73766720786d6c6e733d22687474703a2f2f7777772e77332e6f72672f323030302f73766722207072657365727665417370656374526174696f3d22784d696e594d696e206d656574222076696577426f783d223020302033353020333530223e3c7374796c653e2e62617365207b2066696c6c3a2077686974653b20666f6e742d66616d696c793a20417269616c2c2056657264616e613b20666f6e742d73697a653a20313470783b207d3c2f7374796c653e3c726563742077696474683d223130302522206865696768743d2231303025222066696c6c3d222345444342434422202f3e3c7465787420783d2231302220793d2232302220636c6173733d2262617365223e3c2f746578743e3c7465787420783d2231302220793d223332302220636c6173733d2262617365223e48617070792056616c656e74696e6573204461793c2f746578743e3c7465787420783d2231302220793d223233302220636c6173733d2262617365223ea264697066735822122030f36bb2bc4242c1a67bf53660af7c41248c2bc98323e7371faa777539f5cb2764736f6c63430008040033",
    "linkReferences": {},
    "deployedLinkReferences": {}
}